{
  "contractName": "CarbonExchange",
  "abi": [
    {
      "inputs": [
        {
          "name": "walletAddress",
          "type": "address"
        },
        {
          "name": "transactionsAddress",
          "type": "address"
        },
        {
          "name": "tokenAddress",
          "type": "address"
        },
        {
          "name": "companyAddress",
          "type": "address"
        }
      ],
      "payable": false,
      "stateMutability": "nonpayable",
      "type": "constructor"
    },
    {
      "constant": false,
      "inputs": [
        {
          "name": "walletAddress",
          "type": "address"
        }
      ],
      "name": "setWallet",
      "outputs": [],
      "payable": false,
      "stateMutability": "nonpayable",
      "type": "function"
    },
    {
      "constant": false,
      "inputs": [
        {
          "name": "amount",
          "type": "uint256"
        }
      ],
      "name": "depositToken",
      "outputs": [],
      "payable": false,
      "stateMutability": "nonpayable",
      "type": "function"
    },
    {
      "constant": false,
      "inputs": [
        {
          "name": "amount",
          "type": "uint256"
        },
        {
          "name": "price",
          "type": "uint256"
        }
      ],
      "name": "placeBidOrder",
      "outputs": [],
      "payable": true,
      "stateMutability": "payable",
      "type": "function"
    },
    {
      "constant": false,
      "inputs": [
        {
          "name": "price",
          "type": "uint256"
        }
      ],
      "name": "removeBidOrder",
      "outputs": [],
      "payable": false,
      "stateMutability": "nonpayable",
      "type": "function"
    },
    {
      "constant": false,
      "inputs": [
        {
          "name": "amount",
          "type": "uint256"
        },
        {
          "name": "price",
          "type": "uint256"
        }
      ],
      "name": "placeAskOrder",
      "outputs": [],
      "payable": false,
      "stateMutability": "nonpayable",
      "type": "function"
    },
    {
      "constant": false,
      "inputs": [
        {
          "name": "price",
          "type": "uint256"
        }
      ],
      "name": "removeAskOrder",
      "outputs": [],
      "payable": false,
      "stateMutability": "nonpayable",
      "type": "function"
    }
  ],
  "bytecode": "0x6080604052336000806101000a81548173ffffffffffffffffffffffffffffffffffffffff021916908373ffffffffffffffffffffffffffffffffffffffff16021790555034801561005057600080fd5b506040516080806127578339810180604052608081101561007057600080fd5b810190808051906020019092919080519060200190929190805190602001909291908051906020019092919050505083600160006101000a81548173ffffffffffffffffffffffffffffffffffffffff021916908373ffffffffffffffffffffffffffffffffffffffff16021790555082600b60006101000a81548173ffffffffffffffffffffffffffffffffffffffff021916908373ffffffffffffffffffffffffffffffffffffffff16021790555081600960006101000a81548173ffffffffffffffffffffffffffffffffffffffff021916908373ffffffffffffffffffffffffffffffffffffffff16021790555080600a60006101000a81548173ffffffffffffffffffffffffffffffffffffffff021916908373ffffffffffffffffffffffffffffffffffffffff160217905550505050506125a1806101b66000396000f3fe608060405260043610610078576000357c0100000000000000000000000000000000000000000000000000000000900463ffffffff16806308a311ef1461007d578063291c40f3146100b85780636215be77146100f3578063da9803d51461012e578063deaa59df14610166578063e998e33b146101b7575b600080fd5b34801561008957600080fd5b506100b6600480360360208110156100a057600080fd5b81019080803590602001909291905050506101fc565b005b3480156100c457600080fd5b506100f1600480360360208110156100db57600080fd5b810190808035906020019092919050505061031d565b005b3480156100ff57600080fd5b5061012c6004803603602081101561011657600080fd5b810190808035906020019092919050505061043e565b005b6101646004803603604081101561014457600080fd5b81019080803590602001909291908035906020019092919050505061062f565b005b34801561017257600080fd5b506101b56004803603602081101561018957600080fd5b81019080803573ffffffffffffffffffffffffffffffffffffffff169060200190929190505050611547565b005b3480156101c357600080fd5b506101fa600480360360408110156101da57600080fd5b81019080803590602001909291908035906020019092919050505061164f565b005b6000600860003373ffffffffffffffffffffffffffffffffffffffff1673ffffffffffffffffffffffffffffffffffffffff1681526020019081526020016000206000838152602001908152602001600020541315156102c4576040517f08c379a00000000000000000000000000000000000000000000000000000000081526004018080602001828103825260168152602001807f4e6f2063757272656e7420426964206f7264657273210000000000000000000081525060200191505060405180910390fd5b6000600860003373ffffffffffffffffffffffffffffffffffffffff1673ffffffffffffffffffffffffffffffffffffffff16815260200190815260200160002060008381526020019081526020016000208190555050565b6000600860003373ffffffffffffffffffffffffffffffffffffffff1673ffffffffffffffffffffffffffffffffffffffff1681526020019081526020016000206000838152602001908152602001600020541215156103e5576040517f08c379a00000000000000000000000000000000000000000000000000000000081526004018080602001828103825260168152602001807f4e6f2063757272656e742041736b206f7264657273210000000000000000000081525060200191505060405180910390fd5b6000600860003373ffffffffffffffffffffffffffffffffffffffff1673ffffffffffffffffffffffffffffffffffffffff16815260200190815260200160002060008381526020019081526020016000208190555050565b600960009054906101000a900473ffffffffffffffffffffffffffffffffffffffff1673ffffffffffffffffffffffffffffffffffffffff1663beabacc83330846040518463ffffffff167c0100000000000000000000000000000000000000000000000000000000028152600401808473ffffffffffffffffffffffffffffffffffffffff1673ffffffffffffffffffffffffffffffffffffffff1681526020018373ffffffffffffffffffffffffffffffffffffffff1673ffffffffffffffffffffffffffffffffffffffff1681526020018281526020019350505050600060405180830381600087803b15801561053757600080fd5b505af115801561054b573d6000803e3d6000fd5b50505050600160009054906101000a900473ffffffffffffffffffffffffffffffffffffffff1673ffffffffffffffffffffffffffffffffffffffff166366168bd733836040518363ffffffff167c0100000000000000000000000000000000000000000000000000000000028152600401808373ffffffffffffffffffffffffffffffffffffffff1673ffffffffffffffffffffffffffffffffffffffff16815260200182815260200192505050600060405180830381600087803b15801561061457600080fd5b505af1158015610628573d6000803e3d6000fd5b5050505050565b600160009054906101000a900473ffffffffffffffffffffffffffffffffffffffff1673ffffffffffffffffffffffffffffffffffffffff166339ed512333346040518363ffffffff167c0100000000000000000000000000000000000000000000000000000000028152600401808373ffffffffffffffffffffffffffffffffffffffff1673ffffffffffffffffffffffffffffffffffffffff16815260200182815260200192505050600060405180830381600087803b1580156106f457600080fd5b505af1158015610708573d6000803e3d6000fd5b505050506000600860003373ffffffffffffffffffffffffffffffffffffffff1673ffffffffffffffffffffffffffffffffffffffff168152602001908152602001600020600083815260200190815260200160002054121515156107fb576040517f08c379a00000000000000000000000000000000000000000000000000000000081526004018080602001828103825260278152602001807f43757272656e746c7920686176652061736b206f72646572206174207468697381526020017f207072696365210000000000000000000000000000000000000000000000000081525060400191505060405180910390fd5b6000600160009054906101000a900473ffffffffffffffffffffffffffffffffffffffff1673ffffffffffffffffffffffffffffffffffffffff16631ba93c16336040518263ffffffff167c0100000000000000000000000000000000000000000000000000000000028152600401808273ffffffffffffffffffffffffffffffffffffffff1673ffffffffffffffffffffffffffffffffffffffff16815260200191505060206040518083038186803b1580156108b857600080fd5b505afa1580156108cc573d6000803e3d6000fd5b505050506040513d60208110156108e257600080fd5b810190808051906020019092919050505090508183028110151515610995576040517f08c379a00000000000000000000000000000000000000000000000000000000081526004018080602001828103825260228152602001807f496e73756666696369656e742066756e64732120506c6561736520746f70207581526020017f702100000000000000000000000000000000000000000000000000000000000081525060400191505060405180910390fd5b600160009054906101000a900473ffffffffffffffffffffffffffffffffffffffff1673ffffffffffffffffffffffffffffffffffffffff166346220663338486026040518363ffffffff167c0100000000000000000000000000000000000000000000000000000000028152600401808373ffffffffffffffffffffffffffffffffffffffff1673ffffffffffffffffffffffffffffffffffffffff16815260200182815260200192505050600060405180830381600087803b158015610a5c57600080fd5b505af1158015610a70573d6000803e3d6000fd5b50505050600060056002015490505b808310158015610a8f5750600084115b1561134e57610a9c612523565b600560000160008581526020019081526020016000206060604051908101604052908160008201805480602002602001604051908101604052809291908181526020016000905b82821015610b7557838290600052602060002090600202016040805190810160405290816000820160009054906101000a900473ffffffffffffffffffffffffffffffffffffffff1673ffffffffffffffffffffffffffffffffffffffff1673ffffffffffffffffffffffffffffffffffffffff16815260200160018201548152505081526020019060010190610ae3565b5050505081526020016001820154815260200160028201548152505090506000816020015190506000826040015190505b8082101561133457610bb6612545565b836000015183815181101515610bc857fe5b90602001906020020151905060008082602001511215610bef578160200151600003610bf5565b81602001515b9050600060086000846000015173ffffffffffffffffffffffffffffffffffffffff1673ffffffffffffffffffffffffffffffffffffffff168152602001908152602001600020600088815260200190815260200160002054121515610c62576001840193505050610ba6565b8881101515610fa357600160009054906101000a900473ffffffffffffffffffffffffffffffffffffffff1673ffffffffffffffffffffffffffffffffffffffff1663b69ff77a33888c026040518363ffffffff167c0100000000000000000000000000000000000000000000000000000000028152600401808373ffffffffffffffffffffffffffffffffffffffff1673ffffffffffffffffffffffffffffffffffffffff16815260200182815260200192505050600060405180830381600087803b158015610d3257600080fd5b505af1158015610d46573d6000803e3d6000fd5b50505050600160009054906101000a900473ffffffffffffffffffffffffffffffffffffffff1673ffffffffffffffffffffffffffffffffffffffff1663d765925d338460000151898d026040518463ffffffff167c0100000000000000000000000000000000000000000000000000000000028152600401808473ffffffffffffffffffffffffffffffffffffffff1673ffffffffffffffffffffffffffffffffffffffff1681526020018373ffffffffffffffffffffffffffffffffffffffff1673ffffffffffffffffffffffffffffffffffffffff1681526020018281526020019350505050600060405180830381600087803b158015610e4957600080fd5b505af1158015610e5d573d6000803e3d6000fd5b50505050600160009054906101000a900473ffffffffffffffffffffffffffffffffffffffff1673ffffffffffffffffffffffffffffffffffffffff1663f5537ede8360000151338c6040518463ffffffff167c0100000000000000000000000000000000000000000000000000000000028152600401808473ffffffffffffffffffffffffffffffffffffffff1673ffffffffffffffffffffffffffffffffffffffff1681526020018373ffffffffffffffffffffffffffffffffffffffff1673ffffffffffffffffffffffffffffffffffffffff1681526020018281526020019350505050600060405180830381600087803b158015610f5e57600080fd5b505af1158015610f72573d6000803e3d6000fd5b50505050610f8882600001518a60000388612439565b610f93338a88612439565b8881039050600098505050611334565b600160009054906101000a900473ffffffffffffffffffffffffffffffffffffffff1673ffffffffffffffffffffffffffffffffffffffff1663b69ff77a338884026040518363ffffffff167c0100000000000000000000000000000000000000000000000000000000028152600401808373ffffffffffffffffffffffffffffffffffffffff1673ffffffffffffffffffffffffffffffffffffffff16815260200182815260200192505050600060405180830381600087803b15801561106a57600080fd5b505af115801561107e573d6000803e3d6000fd5b50505050600160009054906101000a900473ffffffffffffffffffffffffffffffffffffffff1673ffffffffffffffffffffffffffffffffffffffff1663d765925d3384600001518985026040518463ffffffff167c0100000000000000000000000000000000000000000000000000000000028152600401808473ffffffffffffffffffffffffffffffffffffffff1673ffffffffffffffffffffffffffffffffffffffff1681526020018373ffffffffffffffffffffffffffffffffffffffff1673ffffffffffffffffffffffffffffffffffffffff1681526020018281526020019350505050600060405180830381600087803b15801561118157600080fd5b505af1158015611195573d6000803e3d6000fd5b50505050600160009054906101000a900473ffffffffffffffffffffffffffffffffffffffff1673ffffffffffffffffffffffffffffffffffffffff1663f5537ede836000015133846040518463ffffffff167c0100000000000000000000000000000000000000000000000000000000028152600401808473ffffffffffffffffffffffffffffffffffffffff1673ffffffffffffffffffffffffffffffffffffffff1681526020018373ffffffffffffffffffffffffffffffffffffffff1673ffffffffffffffffffffffffffffffffffffffff1681526020018281526020019350505050600060405180830381600087803b15801561129657600080fd5b505af11580156112aa573d6000803e3d6000fd5b505050506112c082600001518260000388612439565b6112cb338288612439565b80890398506000905060006005600101600088815260200190815260200160002054905080600560020181905550600560010160008881526020019081526020016000206000905550806000038260200181815103915081815250506001840193505050610ba6565b818360200181815250506005600201549350505050610a7f565b6000841115611541576000600280015490508084111561139557600280015460026001016000868152602001908152602001600020819055508360028001819055506113ff565b600081905060005b858211156113c6578190506002600101600083815260200190815260200160002054915061139d565b85600260010160008381526020019081526020016000208190555081600260010160008881526020019081526020016000208190555050505b6002600001600085815260200190815260200160002060000160408051908101604052803373ffffffffffffffffffffffffffffffffffffffff168152602001878152509080600181540180825580915050906001820390600052602060002090600202016000909192909190915060008201518160000160006101000a81548173ffffffffffffffffffffffffffffffffffffffff021916908373ffffffffffffffffffffffffffffffffffffffff160217905550602082015181600101555050506001600260000160008681526020019081526020016000206002016000828254019250508190555084600860003373ffffffffffffffffffffffffffffffffffffffff1673ffffffffffffffffffffffffffffffffffffffff168152602001908152602001600020600086815260200190815260200160002081905550505b50505050565b6000809054906101000a900473ffffffffffffffffffffffffffffffffffffffff1673ffffffffffffffffffffffffffffffffffffffff163373ffffffffffffffffffffffffffffffffffffffff1614151561160b576040517f08c379a00000000000000000000000000000000000000000000000000000000081526004018080602001828103825260168152602001807f4e6f74206f776e6572206f6620636f6e7472616374210000000000000000000081525060200191505060405180910390fd5b80600160006101000a81548173ffffffffffffffffffffffffffffffffffffffff021916908373ffffffffffffffffffffffffffffffffffffffff16021790555050565b6000600860003373ffffffffffffffffffffffffffffffffffffffff1673ffffffffffffffffffffffffffffffffffffffff1681526020019081526020016000206000838152602001908152602001600020541315151561173e576040517f08c379a00000000000000000000000000000000000000000000000000000000081526004018080602001828103825260278152602001807f43757272656e746c79206861766520626964206f72646572206174207468697381526020017f207072696365210000000000000000000000000000000000000000000000000081525060400191505060405180910390fd5b81600160009054906101000a900473ffffffffffffffffffffffffffffffffffffffff1673ffffffffffffffffffffffffffffffffffffffff1663aed6a6dc336040518263ffffffff167c0100000000000000000000000000000000000000000000000000000000028152600401808273ffffffffffffffffffffffffffffffffffffffff1673ffffffffffffffffffffffffffffffffffffffff16815260200191505060206040518083038186803b1580156117fa57600080fd5b505afa15801561180e573d6000803e3d6000fd5b505050506040513d602081101561182457600080fd5b8101908080519060200190929190505050101515156118ab576040517f08c379a000000000000000000000000000000000000000000000000000000000815260040180806020018281038252601c8152602001807f496e73756666696369656e7420546f6b656e7320746f2073656c6c210000000081525060200191505060405180910390fd5b600160009054906101000a900473ffffffffffffffffffffffffffffffffffffffff1673ffffffffffffffffffffffffffffffffffffffff1663515d01bf33846040518363ffffffff167c0100000000000000000000000000000000000000000000000000000000028152600401808373ffffffffffffffffffffffffffffffffffffffff1673ffffffffffffffffffffffffffffffffffffffff16815260200182815260200192505050600060405180830381600087803b15801561197057600080fd5b505af1158015611984573d6000803e3d6000fd5b505050506000600280015490505b8082111580156119a25750600083115b15612238576119af612523565b600260000160008481526020019081526020016000206060604051908101604052908160008201805480602002602001604051908101604052809291908181526020016000905b82821015611a8857838290600052602060002090600202016040805190810160405290816000820160009054906101000a900473ffffffffffffffffffffffffffffffffffffffff1673ffffffffffffffffffffffffffffffffffffffff1673ffffffffffffffffffffffffffffffffffffffff168152602001600182015481525050815260200190600101906119f6565b5050505081526020016001820154815260200160028201548152505090506000816020015190506000826040015190505b8082101561221f57611ac9612545565b836000015183815181101515611adb57fe5b906020019060200201519050600081602001519050600060086000846000015173ffffffffffffffffffffffffffffffffffffffff1673ffffffffffffffffffffffffffffffffffffffff168152602001908152602001600020600088815260200190815260200160002054131515611b5b576001840193505050611ab9565b8781101515611e9a57600160009054906101000a900473ffffffffffffffffffffffffffffffffffffffff1673ffffffffffffffffffffffffffffffffffffffff1663d765925d836000015133898c026040518463ffffffff167c0100000000000000000000000000000000000000000000000000000000028152600401808473ffffffffffffffffffffffffffffffffffffffff1673ffffffffffffffffffffffffffffffffffffffff1681526020018373ffffffffffffffffffffffffffffffffffffffff1673ffffffffffffffffffffffffffffffffffffffff1681526020018281526020019350505050600060405180830381600087803b158015611c6357600080fd5b505af1158015611c77573d6000803e3d6000fd5b50505050600160009054906101000a900473ffffffffffffffffffffffffffffffffffffffff1673ffffffffffffffffffffffffffffffffffffffff1663411908de338a6040518363ffffffff167c0100000000000000000000000000000000000000000000000000000000028152600401808373ffffffffffffffffffffffffffffffffffffffff1673ffffffffffffffffffffffffffffffffffffffff16815260200182815260200192505050600060405180830381600087803b158015611d4057600080fd5b505af1158015611d54573d6000803e3d6000fd5b50505050600160009054906101000a900473ffffffffffffffffffffffffffffffffffffffff1673ffffffffffffffffffffffffffffffffffffffff1663f5537ede3384600001518b6040518463ffffffff167c0100000000000000000000000000000000000000000000000000000000028152600401808473ffffffffffffffffffffffffffffffffffffffff1673ffffffffffffffffffffffffffffffffffffffff1681526020018373ffffffffffffffffffffffffffffffffffffffff1673ffffffffffffffffffffffffffffffffffffffff1681526020018281526020019350505050600060405180830381600087803b158015611e5557600080fd5b505af1158015611e69573d6000803e3d6000fd5b50505050611e7b338960000388612439565b611e8a82600001518988612439565b878103905060009750505061221f565b600160009054906101000a900473ffffffffffffffffffffffffffffffffffffffff1673ffffffffffffffffffffffffffffffffffffffff1663d765925d8360000151338985026040518463ffffffff167c0100000000000000000000000000000000000000000000000000000000028152600401808473ffffffffffffffffffffffffffffffffffffffff1673ffffffffffffffffffffffffffffffffffffffff1681526020018373ffffffffffffffffffffffffffffffffffffffff1673ffffffffffffffffffffffffffffffffffffffff1681526020018281526020019350505050600060405180830381600087803b158015611f9957600080fd5b505af1158015611fad573d6000803e3d6000fd5b50505050600160009054906101000a900473ffffffffffffffffffffffffffffffffffffffff1673ffffffffffffffffffffffffffffffffffffffff1663411908de33836040518363ffffffff167c0100000000000000000000000000000000000000000000000000000000028152600401808373ffffffffffffffffffffffffffffffffffffffff1673ffffffffffffffffffffffffffffffffffffffff16815260200182815260200192505050600060405180830381600087803b15801561207657600080fd5b505af115801561208a573d6000803e3d6000fd5b50505050600160009054906101000a900473ffffffffffffffffffffffffffffffffffffffff1673ffffffffffffffffffffffffffffffffffffffff1663f5537ede338460000151846040518463ffffffff167c0100000000000000000000000000000000000000000000000000000000028152600401808473ffffffffffffffffffffffffffffffffffffffff1673ffffffffffffffffffffffffffffffffffffffff1681526020018373ffffffffffffffffffffffffffffffffffffffff1673ffffffffffffffffffffffffffffffffffffffff1681526020018281526020019350505050600060405180830381600087803b15801561218b57600080fd5b505af115801561219f573d6000803e3d6000fd5b505050506121b1338260000388612439565b6121c082600001518288612439565b808803975060009050600060026001016000888152602001908152602001600020549050806002800181905550600260010160008881526020019081526020016000206000905550808260200181815250506001840193505050611ab9565b8183602001818152505060028001549350505050611992565b60008311156122ee576000600560020154905080831015612282576005600201546005600101600085815260200190815260200160002081905550826005600201819055506122ec565b600081905060005b848210156122b3578190506005600101600083815260200190815260200160002054915061228a565b84600560010160008381526020019081526020016000208190555081600560010160008781526020019081526020016000208190555050505b505b6005600001600083815260200190815260200160002060000160408051908101604052803373ffffffffffffffffffffffffffffffffffffffff168152602001856000038152509080600181540180825580915050906001820390600052602060002090600202016000909192909190915060008201518160000160006101000a81548173ffffffffffffffffffffffffffffffffffffffff021916908373ffffffffffffffffffffffffffffffffffffffff160217905550602082015181600101555050506001600560000160008481526020019081526020016000206002016000828254019250508190555082600003600860003373ffffffffffffffffffffffffffffffffffffffff1673ffffffffffffffffffffffffffffffffffffffff168152602001908152602001600020600084815260200190815260200160002081905550505050565b600b60009054906101000a900473ffffffffffffffffffffffffffffffffffffffff1673ffffffffffffffffffffffffffffffffffffffff16632fe116758484846040518463ffffffff167c0100000000000000000000000000000000000000000000000000000000028152600401808473ffffffffffffffffffffffffffffffffffffffff1673ffffffffffffffffffffffffffffffffffffffff1681526020018381526020018281526020019350505050600060405180830381600087803b15801561250657600080fd5b505af115801561251a573d6000803e3d6000fd5b50505050505050565b6060604051908101604052806060815260200160008152602001600081525090565b6040805190810160405280600073ffffffffffffffffffffffffffffffffffffffff16815260200160008152509056fea165627a7a7230582079e326b2f8174fb46e0376114af4305584739d860af5dd2e0443bfa90cc6a3ec0029",
  "source": "pragma solidity ^0.5.0;\r\n\r\nimport './Company.sol';\r\nimport './CarbonToken.sol';\r\nimport './TransactionData.sol';\r\nimport './Wallet.sol';\r\n\r\ncontract CarbonExchange {\r\n    address owner = msg.sender;\r\n    Wallet wallet;\r\n\r\n    struct OrderInfo {\r\n        address account_address;\r\n        int256 amount;\r\n    }\r\n\r\n    struct OrderList {\r\n        OrderInfo[] orders;\r\n        uint256 front;\r\n        uint256 end;\r\n    }\r\n\r\n    struct Spread {\r\n        mapping(uint256 => OrderList) prices;\r\n        mapping(uint256 => uint256) nextClosest;\r\n        uint256 closest;\r\n    }\r\n\r\n    Spread bid;\r\n    Spread ask;\r\n    \r\n    // map from address to price to amount\r\n    mapping(address => mapping(uint256 => int256)) addressOrders;\r\n\r\n    CarbonToken tokenContract;\r\n    Company companyContract;\r\n    TransactionData transactions;\r\n    \r\n    constructor(Wallet walletAddress, TransactionData transactionsAddress, CarbonToken tokenAddress, Company companyAddress) public {\r\n        wallet = walletAddress;\r\n        transactions = transactionsAddress;\r\n        tokenContract = tokenAddress;\r\n        companyContract = companyAddress;\r\n    }\r\n\r\n    // ------ modifiers ------\r\n\r\n    // access restriction\r\n    modifier companyOnly() {\r\n        require(companyContract.isApproved(msg.sender), 'Not authorised company!');\r\n        _;\r\n    }\r\n\r\n    modifier ownerOnly() {\r\n        require(msg.sender == owner, 'Not owner of contract!');\r\n        _;\r\n    }\r\n\r\n    function setWallet(Wallet walletAddress) public ownerOnly {\r\n        wallet = walletAddress;\r\n    }\r\n    \r\n    // storing transaction data\r\n    function logTransaction(address _address, int256 amount, uint256 price) private {\r\n\r\n        // amount > 0 implies its a buy transaction.\r\n        // amount < 0 implies its a sell tranasction.\r\n        transactions.addTransaction(_address, amount, price);\r\n    }\r\n\r\n    function depositToken(uint256 amount) public {\r\n        tokenContract.transfer(msg.sender, address(this), amount);\r\n        wallet.depositTokens(msg.sender, amount);\r\n    }\r\n\r\n    function placeBidOrder(uint256 amount, uint256 price) public payable {\r\n        \r\n        // update balance of eth in wallet\r\n        wallet.depositEth(msg.sender, msg.value);\r\n        // ensure there is no other ask orders at this price\r\n        require(addressOrders[msg.sender][price] >= 0, 'Currently have ask order at this price!');\r\n        // ensure that there is sufficient funds in wallet to make the purchase\r\n        uint256 availableEth = wallet.getWithdrawableEth(msg.sender);\r\n        require(availableEth >= amount * price, 'Insufficient funds! Please top up!');\r\n        // lock necessary eth in the wallet.\r\n        wallet.addLockedEth(msg.sender, amount*price);\r\n\r\n        // if bid price is higher than the lowest ask price, can fill order.\r\n        uint256 lowest = ask.closest;\r\n        // uint256 total = amount;\r\n\r\n        // if there is a asking price lower than the bidding price and order is not fully filled yet\r\n        while (price >= lowest && amount > 0) {\r\n            OrderList memory orderLst = ask.prices[price];\r\n            uint256 front = orderLst.front;\r\n            uint256 end = orderLst.end;\r\n            \r\n            // while ask queue at \"lowest\" price is not empty\r\n            while (front < end) {\r\n                // iterating through the asking orders at \"lowest\" price.\r\n                OrderInfo memory orderInfo = orderLst.orders[front];\r\n                uint256 sellerAmount = orderInfo.amount >= 0 ? uint256(orderInfo.amount) : uint256(-orderInfo.amount);\r\n                \r\n                // skip if the seller has cancelled the ask order.\r\n                if (addressOrders[orderInfo.account_address][lowest] >= 0) {\r\n                    front += 1;\r\n                    continue;\r\n                }\r\n\r\n                if (sellerAmount >= amount) {\r\n                    // if a ask order can cover the total bid order\r\n                    \r\n                    // transfer Eth in wallet\r\n                    wallet.reduceLockedEth(msg.sender, amount * lowest);\r\n                    wallet.transferEth(msg.sender, orderInfo.account_address, amount * lowest);\r\n                    // transfer tokens in wallet\r\n                    wallet.transferToken(orderInfo.account_address, msg.sender, amount);\r\n                    \r\n                    // Log sell transaction for ask order fulfilled.\r\n                    logTransaction(orderInfo.account_address, int256(-amount), lowest);\r\n                    // log buy transaction for bid order fulfilled.\r\n                    logTransaction(msg.sender, int256(amount), lowest);\r\n\r\n                    sellerAmount -= amount;\r\n                    amount = 0;\r\n\r\n                    // order has been fulfilled break loop.\r\n                    break;\r\n                } else {\r\n                    // if a ask order can only partially cover the total bid order\r\n\r\n                    // transfer Eth in wallet\r\n                    wallet.reduceLockedEth(msg.sender, sellerAmount * lowest);\r\n                    wallet.transferEth(msg.sender, orderInfo.account_address, sellerAmount * lowest);\r\n                    // transfer tokens in wallet\r\n                    wallet.transferToken(orderInfo.account_address, msg.sender, sellerAmount);\r\n                    \r\n                    // Log sell transaction for ask order fulfilled\r\n                    logTransaction(orderInfo.account_address, int256(-sellerAmount), lowest);\r\n                    // log buy transaction for bid order fulfilled.\r\n                    logTransaction(msg.sender, int256(sellerAmount), lowest);\r\n\r\n                    amount -= sellerAmount;\r\n                    sellerAmount = 0;\r\n                    uint256 next = ask.nextClosest[lowest];\r\n                    ask.closest = next;\r\n                    delete ask.nextClosest[lowest];\r\n                }\r\n                orderInfo.amount -= int256(-sellerAmount);\r\n                front += 1;\r\n            }\r\n            orderLst.front = front;\r\n            lowest = ask.closest;\r\n        }\r\n\r\n        // reduce restricted eth in wallet, since partial of the bid order has been fulfilled.\r\n        // if (total > amount) {\r\n        //     uint256 ethUnlocked = (total - amount) * price;\r\n        //     wallet.reduceLockedEth(msg.sender, ethUnlocked);\r\n        // }\r\n        \r\n        // if order is not fully fulfilled yet, add to bid orders.\r\n        if (amount > 0) {\r\n            uint256 highest = bid.closest;\r\n\r\n            if (price > highest) {\r\n                // if bid price is higher than all the other bid orders.\r\n                \r\n                bid.nextClosest[price] = bid.closest;\r\n                bid.closest = price;\r\n            \r\n            } else {\r\n                // if bid price is NOT higher than all other bid orders\r\n\r\n                uint256 current = highest;\r\n                uint256 previous;\r\n                // find mapping where by current > price\r\n                while (current > price) {\r\n                    previous = current;\r\n                    current = bid.nextClosest[current];\r\n                }\r\n                bid.nextClosest[previous] = price;\r\n                bid.nextClosest[price] = current;\r\n            }\r\n\r\n            // add OrderInfo to queue of bid orders with the same bid price.\r\n            bid.prices[price].orders.push(OrderInfo({account_address: msg.sender, amount: int256(amount)}));\r\n            bid.prices[price].end += 1;\r\n            // update address's orders\r\n            addressOrders[msg.sender][price] = int256(amount);\r\n        }\r\n    }\r\n\r\n    function removeBidOrder(uint256 price) public {\r\n        require(addressOrders[msg.sender][price] > 0, 'No current Bid orders!');\r\n        addressOrders[msg.sender][price] = 0;\r\n    }\r\n\r\n    function placeAskOrder(uint256 amount, uint256 price) public {\r\n        // ensure there is no other bidOrders at this price.\r\n        require(addressOrders[msg.sender][price] <= 0, 'Currently have bid order at this price!');\r\n        // ensure there is sufficient tokens in wallet to make the purchase\r\n        require(wallet.getWithdrawableToken(msg.sender) >= amount, 'Insufficient Tokens to sell!');\r\n        // lock necessary tokens in the wallet.\r\n        wallet.addLockedToken(msg.sender, amount);\r\n\r\n        // if ask price is lower than the highest bid price, can fill order\r\n        uint256 highest = bid.closest;\r\n        // uint256 total = amount;\r\n\r\n        // if there is a bidding price higher than the asking price and order is not fully filled yet.\r\n        while (price <= highest && amount > 0) {\r\n\r\n            OrderList memory orderLst = bid.prices[price];\r\n            uint256 front = orderLst.front;\r\n            uint256 end = orderLst.end;\r\n\r\n            // while bid queue at \"highest\" price is not empty\r\n            while (front < end) {\r\n                // iterating through the bidding orders at \"highest\" price\r\n                OrderInfo memory orderInfo = orderLst.orders[front];\r\n                uint256 buyerAmount = uint256(orderInfo.amount); // can safely type cast because buy amount is always > 0\r\n\r\n                // skip if the bidder has cancelled their bid order\r\n                if (addressOrders[orderInfo.account_address][highest] <= 0) {\r\n                    front += 1;\r\n                    continue;\r\n                }\r\n\r\n                if (buyerAmount >= amount) {\r\n                    // if a bid order can cover the total ask order\r\n\r\n                    // transfer Eth in wallet from buyer to seller.\r\n                    wallet.transferEth(orderInfo.account_address, msg.sender, amount * highest); // amount to transfer = amount sold * price sold at.\r\n\r\n                    // transfer tokens in wallet from seller to buyer.\r\n                    wallet.reduceLockedToken(msg.sender, amount);\r\n                    wallet.transferToken(msg.sender, orderInfo.account_address, amount);\r\n\r\n                    // log sell transaction for ask order fulfilled\r\n                    logTransaction(msg.sender, int256(-amount), highest);\r\n\r\n                    // log buy transaction for bid order fulfilled\r\n                    logTransaction(orderInfo.account_address, int256(amount), highest);\r\n\r\n                    buyerAmount -= amount;\r\n                    amount = 0;\r\n\r\n                    // order has been fulfilled break loop.\r\n                    break;\r\n                } else {\r\n                    // if a bid order can only partially cover the total ask order\r\n\r\n                    // transfer Eth in wallet from buyer to seller\r\n                    wallet.transferEth(orderInfo.account_address, msg.sender, buyerAmount * highest);\r\n                    // transfer tokens in wallet from seller to buyer\r\n                    wallet.reduceLockedToken(msg.sender, buyerAmount);\r\n                    wallet.transferToken(msg.sender, orderInfo.account_address, buyerAmount);\r\n\r\n                    // log sell transaction for ask order fulfilled.\r\n                    logTransaction(msg.sender, int256(-buyerAmount), highest);\r\n                    // log buy transaction for bid order filfilled.\r\n                    logTransaction(orderInfo.account_address, int256(buyerAmount), highest);\r\n\r\n                    amount -= buyerAmount;\r\n                    buyerAmount = 0;\r\n                    uint256 next = bid.nextClosest[highest];\r\n                    bid.closest = next;\r\n                    delete bid.nextClosest[highest];\r\n                }\r\n                orderInfo.amount = int256(buyerAmount);\r\n                front += 1;\r\n                \r\n            }\r\n\r\n            orderLst.front = front;\r\n            highest = bid.closest;\r\n        }\r\n\r\n        // reduce restricted token in wallet since partial of the bid order has been fulfilled.\r\n        // if (total > amount) {\r\n        //     uint256 tokensUnlocked = total - amount;\r\n        //     wallet.reduceLockedToken(msg.sender, tokensUnlocked);\r\n        // }\r\n\r\n        // if order is not fully fulfilled yet, add to ask orders.\r\n        if (amount > 0) {\r\n            uint256 lowest = ask.closest;\r\n\r\n            if (price < lowest) {\r\n                // if ask price is lower than all the other ask orders.\r\n\r\n                ask.nextClosest[price] = ask.closest;\r\n                ask.closest = price;\r\n            \r\n            } else {\r\n                // if ask price is NOT lower than all other ask orders.\r\n\r\n                uint256 current = lowest;\r\n                uint256 previous;\r\n\r\n                // find mapping where by current < price\r\n                while (current < price) {\r\n                    previous = current;\r\n                    current = ask.nextClosest[current];\r\n                }\r\n                ask.nextClosest[previous] = price;\r\n                ask.nextClosest[price] = current;\r\n            }\r\n        }\r\n\r\n        // add OrderInfo to queue of ask orders with the same ask price\r\n        ask.prices[price].orders.push(OrderInfo({account_address: msg.sender, amount: int256(-amount)}));\r\n        ask.prices[price].end += 1;\r\n\r\n        // update address's orders\r\n        addressOrders[msg.sender][price] = int256(-amount);\r\n\r\n    }\r\n\r\n    function removeAskOrder(uint256 price) public {\r\n        require(addressOrders[msg.sender][price] < 0, 'No current Ask orders!');\r\n        addressOrders[msg.sender][price] = 0;\r\n    }\r\n\r\n\r\n\r\n    \r\n}",
  "sourcePath": "C:\\Users\\jared\\My Cloud\\NUS\\Y3S2\\IS4302\\Project\\CarbonCoin\\contracts\\CarbonExchange.sol",
  "compiler": {
    "name": "solc",
    "version": "0.5.0+commit.1d4f565a.Emscripten.clang"
  },
  "schemaVersion": "3.4.4",
  "updatedAt": "2022-04-06T11:46:53.256Z",
  "networkType": "ethereum",
  "devdoc": {
    "methods": {}
  },
  "userdoc": {
    "methods": {}
  }
}