{
  "contractName": "Project",
  "abi": [
    {
      "inputs": [
        {
          "name": "regulatorContractAddress",
          "type": "address"
        },
        {
          "name": "companyContractAddress",
          "type": "address"
        },
        {
          "name": "projectStorageAddress",
          "type": "address"
        }
      ],
      "payable": false,
      "stateMutability": "nonpayable",
      "type": "constructor"
    },
    {
      "constant": false,
      "inputs": [
        {
          "name": "projectName",
          "type": "string"
        }
      ],
      "name": "requestProject",
      "outputs": [],
      "payable": false,
      "stateMutability": "nonpayable",
      "type": "function"
    },
    {
      "constant": false,
      "inputs": [
        {
          "name": "projectId",
          "type": "uint256"
        },
        {
          "name": "awardedTokens",
          "type": "uint256"
        }
      ],
      "name": "approveProject",
      "outputs": [],
      "payable": false,
      "stateMutability": "nonpayable",
      "type": "function"
    },
    {
      "constant": false,
      "inputs": [
        {
          "name": "projectId",
          "type": "uint256"
        }
      ],
      "name": "rejectProject",
      "outputs": [],
      "payable": false,
      "stateMutability": "nonpayable",
      "type": "function"
    }
  ],
  "bytecode": "0x608060405234801561001057600080fd5b50604051606080610b848339810180604052606081101561003057600080fd5b81019080805190602001909291908051906020019092919080519060200190929190505050826000806101000a81548173ffffffffffffffffffffffffffffffffffffffff021916908373ffffffffffffffffffffffffffffffffffffffff16021790555081600160006101000a81548173ffffffffffffffffffffffffffffffffffffffff021916908373ffffffffffffffffffffffffffffffffffffffff16021790555080600260006101000a81548173ffffffffffffffffffffffffffffffffffffffff021916908373ffffffffffffffffffffffffffffffffffffffff160217905550505050610a5b806101296000396000f3fe608060405260043610610057576000357c0100000000000000000000000000000000000000000000000000000000900463ffffffff1680634f9463501461005c57806369b04f1914610124578063cafcc1631461015f575b600080fd5b34801561006857600080fd5b506101226004803603602081101561007f57600080fd5b810190808035906020019064010000000081111561009c57600080fd5b8201836020820111156100ae57600080fd5b803590602001918460018302840111640100000000831117156100d057600080fd5b91908080601f016020809104026020016040519081016040528093929190818152602001838380828437600081840152601f19601f8201169050808301925050505050505091929192905050506101a4565b005b34801561013057600080fd5b5061015d6004803603602081101561014757600080fd5b810190808035906020019092919050505061041f565b005b34801561016b57600080fd5b506101a26004803603604081101561018257600080fd5b810190808035906020019092919080359060200190929190505050610654565b005b600160009054906101000a900473ffffffffffffffffffffffffffffffffffffffff1673ffffffffffffffffffffffffffffffffffffffff166351b699cd336040518263ffffffff167c0100000000000000000000000000000000000000000000000000000000028152600401808273ffffffffffffffffffffffffffffffffffffffff1673ffffffffffffffffffffffffffffffffffffffff16815260200191505060206040518083038186803b15801561025f57600080fd5b505afa158015610273573d6000803e3d6000fd5b505050506040513d602081101561028957600080fd5b8101908080519060200190929190505050151561030e576040517f08c379a00000000000000000000000000000000000000000000000000000000081526004018080602001828103825260178152602001807f4e6f7420617574686f726973656420436f6d70616e792100000000000000000081525060200191505060405180910390fd5b600260009054906101000a900473ffffffffffffffffffffffffffffffffffffffff1673ffffffffffffffffffffffffffffffffffffffff16630ed047d4826040518263ffffffff167c01000000000000000000000000000000000000000000000000000000000281526004018080602001828103825283818151815260200191508051906020019080838360005b838110156103b857808201518184015260208101905061039d565b50505050905090810190601f1680156103e55780820380516001836020036101000a031916815260200191505b5092505050600060405180830381600087803b15801561040457600080fd5b505af1158015610418573d6000803e3d6000fd5b5050505050565b6000809054906101000a900473ffffffffffffffffffffffffffffffffffffffff1673ffffffffffffffffffffffffffffffffffffffff166351b699cd336040518263ffffffff167c0100000000000000000000000000000000000000000000000000000000028152600401808273ffffffffffffffffffffffffffffffffffffffff1673ffffffffffffffffffffffffffffffffffffffff16815260200191505060206040518083038186803b1580156104d957600080fd5b505afa1580156104ed573d6000803e3d6000fd5b505050506040513d602081101561050357600080fd5b81019080805190602001909291905050501515610588576040517f08c379a00000000000000000000000000000000000000000000000000000000081526004018080602001828103825260198152602001807f4e6f7420617574686f726973656420526567756c61746f72210000000000000081525060200191505060405180910390fd5b600260009054906101000a900473ffffffffffffffffffffffffffffffffffffffff1673ffffffffffffffffffffffffffffffffffffffff1663b63d9a1982600260006040518463ffffffff167c01000000000000000000000000000000000000000000000000000000000281526004018084815260200183600281111561060c57fe5b60ff1681526020018281526020019350505050600060405180830381600087803b15801561063957600080fd5b505af115801561064d573d6000803e3d6000fd5b5050505050565b6000809054906101000a900473ffffffffffffffffffffffffffffffffffffffff1673ffffffffffffffffffffffffffffffffffffffff166351b699cd336040518263ffffffff167c0100000000000000000000000000000000000000000000000000000000028152600401808273ffffffffffffffffffffffffffffffffffffffff1673ffffffffffffffffffffffffffffffffffffffff16815260200191505060206040518083038186803b15801561070e57600080fd5b505afa158015610722573d6000803e3d6000fd5b505050506040513d602081101561073857600080fd5b810190808051906020019092919050505015156107bd576040517f08c379a00000000000000000000000000000000000000000000000000000000081526004018080602001828103825260198152602001807f4e6f7420617574686f726973656420526567756c61746f72210000000000000081525060200191505060405180910390fd5b600260009054906101000a900473ffffffffffffffffffffffffffffffffffffffff1673ffffffffffffffffffffffffffffffffffffffff1663b63d9a19836001846040518463ffffffff167c01000000000000000000000000000000000000000000000000000000000281526004018084815260200183600281111561084057fe5b60ff1681526020018281526020019350505050600060405180830381600087803b15801561086d57600080fd5b505af1158015610881573d6000803e3d6000fd5b50505050600360009054906101000a900473ffffffffffffffffffffffffffffffffffffffff1673ffffffffffffffffffffffffffffffffffffffff1663da1919b3600260009054906101000a900473ffffffffffffffffffffffffffffffffffffffff1673ffffffffffffffffffffffffffffffffffffffff166357d13917856040518263ffffffff167c01000000000000000000000000000000000000000000000000000000000281526004018082815260200191505060206040518083038186803b15801561095257600080fd5b505afa158015610966573d6000803e3d6000fd5b505050506040513d602081101561097c57600080fd5b8101908080519060200190929190505050836040518363ffffffff167c0100000000000000000000000000000000000000000000000000000000028152600401808373ffffffffffffffffffffffffffffffffffffffff1673ffffffffffffffffffffffffffffffffffffffff16815260200182815260200192505050600060405180830381600087803b158015610a1357600080fd5b505af1158015610a27573d6000803e3d6000fd5b50505050505056fea165627a7a72305820563738c06d1c5f01f7acb25d6acaadde7f011567dd496a1aabf92683ac29b1d50029",
  "source": "pragma solidity ^0.5.0;\r\n\r\nimport './Regulator.sol';\r\nimport './Company.sol';\r\nimport './ProjectStorage.sol';\r\nimport './CarbonToken.sol';\r\n\r\ncontract Project {\r\n    Regulator regulatorContract;\r\n    Company companyContract;\r\n\r\n    ProjectStorage projectStorage;\r\n    CarbonToken carbonContract;\r\n\r\n    constructor(Regulator regulatorContractAddress, Company companyContractAddress, ProjectStorage projectStorageAddress) public {\r\n        regulatorContract = regulatorContractAddress;\r\n        companyContract = companyContractAddress;\r\n        projectStorage = projectStorageAddress;\r\n    }\r\n\r\n    modifier companyOnly() {\r\n        require(companyContract.isAuthorised(msg.sender), 'Not authorised Company!');\r\n        _;\r\n    }\r\n\r\n    modifier regulatorOnly() {\r\n        require(regulatorContract.isAuthorised(msg.sender), 'Not authorised Regulator!');\r\n        _;\r\n    }\r\n\r\n    function requestProject(string memory projectName) public companyOnly {\r\n        projectStorage.addProject(projectName);\r\n    }\r\n\r\n    function approveProject(uint256 projectId, uint256 awardedTokens) public regulatorOnly {\r\n        projectStorage.updateProject(projectId, ProjectStorage.ProjectStatus.Approved, awardedTokens);\r\n        carbonContract.mintFor(projectStorage.getCompany(projectId), awardedTokens);\r\n    }\r\n\r\n    function rejectProject(uint256 projectId) public regulatorOnly() {\r\n        projectStorage.updateProject(projectId, ProjectStorage.ProjectStatus.Rejected, 0);\r\n    }\r\n    \r\n}",
  "sourcePath": "C:\\Users\\Daniel\\Desktop\\IS4302-CarbonCoin\\contracts\\Project.sol",
  "compiler": {
    "name": "solc",
    "version": "0.5.0+commit.1d4f565a.Emscripten.clang"
  },
  "schemaVersion": "3.4.4",
  "updatedAt": "2022-04-05T08:18:48.721Z",
  "devdoc": {
    "methods": {}
  },
  "userdoc": {
    "methods": {}
  }
}