{
  "contractName": "Project",
  "abi": [
    {
      "inputs": [
        {
          "name": "regulatorContractAddress",
          "type": "address"
        },
        {
          "name": "companyContractAddress",
          "type": "address"
        },
        {
          "name": "projectStorageAddress",
          "type": "address"
        }
      ],
      "payable": false,
      "stateMutability": "nonpayable",
      "type": "constructor"
    },
    {
      "constant": false,
      "inputs": [
        {
          "name": "projectName",
          "type": "string"
        }
      ],
      "name": "requestProject",
      "outputs": [],
      "payable": false,
      "stateMutability": "nonpayable",
      "type": "function"
    },
    {
      "constant": false,
      "inputs": [
        {
          "name": "projectId",
          "type": "uint256"
        },
        {
          "name": "awardedTokens",
          "type": "uint256"
        }
      ],
      "name": "approveProject",
      "outputs": [],
      "payable": false,
      "stateMutability": "nonpayable",
      "type": "function"
    },
    {
      "constant": false,
      "inputs": [
        {
          "name": "projectId",
          "type": "uint256"
        }
      ],
      "name": "rejectProject",
      "outputs": [],
      "payable": false,
      "stateMutability": "nonpayable",
      "type": "function"
    },
    {
      "constant": true,
      "inputs": [
        {
          "name": "projectId",
          "type": "uint256"
        }
      ],
      "name": "getCompany",
      "outputs": [
        {
          "name": "",
          "type": "address"
        }
      ],
      "payable": false,
      "stateMutability": "view",
      "type": "function"
    },
    {
      "constant": true,
      "inputs": [
        {
          "name": "projectId",
          "type": "uint256"
        }
      ],
      "name": "getProjectRewards",
      "outputs": [
        {
          "name": "",
          "type": "uint256"
        }
      ],
      "payable": false,
      "stateMutability": "view",
      "type": "function"
    }
  ],
  "bytecode": "0x608060405234801561001057600080fd5b50604051606080610c648339810180604052606081101561003057600080fd5b81019080805190602001909291908051906020019092919080519060200190929190505050826000806101000a81548173ffffffffffffffffffffffffffffffffffffffff021916908373ffffffffffffffffffffffffffffffffffffffff16021790555081600160006101000a81548173ffffffffffffffffffffffffffffffffffffffff021916908373ffffffffffffffffffffffffffffffffffffffff16021790555080600260006101000a81548173ffffffffffffffffffffffffffffffffffffffff021916908373ffffffffffffffffffffffffffffffffffffffff160217905550505050610b3b806101296000396000f3fe60806040526004361061006d576000357c0100000000000000000000000000000000000000000000000000000000900463ffffffff1680634f9463501461007257806357d139171461013a57806369b04f19146101b55780638b055d8b146101f0578063cafcc1631461023f575b600080fd5b34801561007e57600080fd5b506101386004803603602081101561009557600080fd5b81019080803590602001906401000000008111156100b257600080fd5b8201836020820111156100c457600080fd5b803590602001918460018302840111640100000000831117156100e657600080fd5b91908080601f016020809104026020016040519081016040528093929190818152602001838380828437600081840152601f19601f820116905080830192505050505050509192919290505050610284565b005b34801561014657600080fd5b506101736004803603602081101561015d57600080fd5b81019080803590602001909291905050506104ff565b604051808273ffffffffffffffffffffffffffffffffffffffff1673ffffffffffffffffffffffffffffffffffffffff16815260200191505060405180910390f35b3480156101c157600080fd5b506101ee600480360360208110156101d857600080fd5b81019080803590602001909291905050506105d2565b005b3480156101fc57600080fd5b506102296004803603602081101561021357600080fd5b8101908080359060200190929190505050610807565b6040518082815260200191505060405180910390f35b34801561024b57600080fd5b506102826004803603604081101561026257600080fd5b8101908080359060200190929190803590602001909291905050506108da565b005b600160009054906101000a900473ffffffffffffffffffffffffffffffffffffffff1673ffffffffffffffffffffffffffffffffffffffff1663673448dd336040518263ffffffff167c0100000000000000000000000000000000000000000000000000000000028152600401808273ffffffffffffffffffffffffffffffffffffffff1673ffffffffffffffffffffffffffffffffffffffff16815260200191505060206040518083038186803b15801561033f57600080fd5b505afa158015610353573d6000803e3d6000fd5b505050506040513d602081101561036957600080fd5b810190808051906020019092919050505015156103ee576040517f08c379a00000000000000000000000000000000000000000000000000000000081526004018080602001828103825260178152602001807f4e6f7420617574686f726973656420436f6d70616e792100000000000000000081525060200191505060405180910390fd5b600260009054906101000a900473ffffffffffffffffffffffffffffffffffffffff1673ffffffffffffffffffffffffffffffffffffffff16630ed047d4826040518263ffffffff167c01000000000000000000000000000000000000000000000000000000000281526004018080602001828103825283818151815260200191508051906020019080838360005b8381101561049857808201518184015260208101905061047d565b50505050905090810190601f1680156104c55780820380516001836020036101000a031916815260200191505b5092505050600060405180830381600087803b1580156104e457600080fd5b505af11580156104f8573d6000803e3d6000fd5b5050505050565b6000600260009054906101000a900473ffffffffffffffffffffffffffffffffffffffff1673ffffffffffffffffffffffffffffffffffffffff166357d13917836040518263ffffffff167c01000000000000000000000000000000000000000000000000000000000281526004018082815260200191505060206040518083038186803b15801561059057600080fd5b505afa1580156105a4573d6000803e3d6000fd5b505050506040513d60208110156105ba57600080fd5b81019080805190602001909291905050509050919050565b6000809054906101000a900473ffffffffffffffffffffffffffffffffffffffff1673ffffffffffffffffffffffffffffffffffffffff1663673448dd336040518263ffffffff167c0100000000000000000000000000000000000000000000000000000000028152600401808273ffffffffffffffffffffffffffffffffffffffff1673ffffffffffffffffffffffffffffffffffffffff16815260200191505060206040518083038186803b15801561068c57600080fd5b505afa1580156106a0573d6000803e3d6000fd5b505050506040513d60208110156106b657600080fd5b8101908080519060200190929190505050151561073b576040517f08c379a00000000000000000000000000000000000000000000000000000000081526004018080602001828103825260198152602001807f4e6f7420617574686f726973656420526567756c61746f72210000000000000081525060200191505060405180910390fd5b600260009054906101000a900473ffffffffffffffffffffffffffffffffffffffff1673ffffffffffffffffffffffffffffffffffffffff1663b63d9a1982600260006040518463ffffffff167c0100000000000000000000000000000000000000000000000000000000028152600401808481526020018360028111156107bf57fe5b60ff1681526020018281526020019350505050600060405180830381600087803b1580156107ec57600080fd5b505af1158015610800573d6000803e3d6000fd5b5050505050565b6000600260009054906101000a900473ffffffffffffffffffffffffffffffffffffffff1673ffffffffffffffffffffffffffffffffffffffff16638b055d8b836040518263ffffffff167c01000000000000000000000000000000000000000000000000000000000281526004018082815260200191505060206040518083038186803b15801561089857600080fd5b505afa1580156108ac573d6000803e3d6000fd5b505050506040513d60208110156108c257600080fd5b81019080805190602001909291905050509050919050565b6000809054906101000a900473ffffffffffffffffffffffffffffffffffffffff1673ffffffffffffffffffffffffffffffffffffffff1663673448dd336040518263ffffffff167c0100000000000000000000000000000000000000000000000000000000028152600401808273ffffffffffffffffffffffffffffffffffffffff1673ffffffffffffffffffffffffffffffffffffffff16815260200191505060206040518083038186803b15801561099457600080fd5b505afa1580156109a8573d6000803e3d6000fd5b505050506040513d60208110156109be57600080fd5b81019080805190602001909291905050501515610a43576040517f08c379a00000000000000000000000000000000000000000000000000000000081526004018080602001828103825260198152602001807f4e6f7420617574686f726973656420526567756c61746f72210000000000000081525060200191505060405180910390fd5b600260009054906101000a900473ffffffffffffffffffffffffffffffffffffffff1673ffffffffffffffffffffffffffffffffffffffff1663b63d9a19836001846040518463ffffffff167c010000000000000000000000000000000000000000000000000000000002815260040180848152602001836002811115610ac657fe5b60ff1681526020018281526020019350505050600060405180830381600087803b158015610af357600080fd5b505af1158015610b07573d6000803e3d6000fd5b50505050505056fea165627a7a7230582088b57638f3bd7b2ac82684cf44bf0fc40750bed6096bfb8d43cc7030b469f62c0029",
  "source": "pragma solidity ^0.5.0;\r\n\r\nimport './Regulator.sol';\r\nimport './Company.sol';\r\nimport './ProjectStorage.sol';\r\nimport './CarbonToken.sol';\r\n\r\ncontract Project {\r\n    Regulator regulatorContract;\r\n    Company companyContract;\r\n\r\n    ProjectStorage projectStorage;\r\n    // CarbonToken carbonContract;\r\n\r\n    constructor(Regulator regulatorContractAddress, Company companyContractAddress, ProjectStorage projectStorageAddress) public {\r\n        regulatorContract = regulatorContractAddress;\r\n        companyContract = companyContractAddress;\r\n        projectStorage = projectStorageAddress;\r\n    }\r\n\r\n    modifier companyOnly() {\r\n        require(companyContract.isApproved(msg.sender), 'Not authorised Company!');\r\n        _;\r\n    }\r\n\r\n    modifier regulatorOnly() {\r\n        require(regulatorContract.isApproved(msg.sender), 'Not authorised Regulator!');\r\n        _;\r\n    }\r\n\r\n    function requestProject(string memory projectName) public companyOnly {\r\n        projectStorage.addProject(projectName);\r\n    }\r\n\r\n    function approveProject(uint256 projectId, uint256 awardedTokens) public regulatorOnly {\r\n        projectStorage.updateProject(projectId, ProjectStorage.ProjectStatus.Approved, awardedTokens);\r\n        // carbonContract.mintFor(projectStorage.getCompany(projectId), awardedTokens);\r\n    }\r\n\r\n    function rejectProject(uint256 projectId) public regulatorOnly() {\r\n        projectStorage.updateProject(projectId, ProjectStorage.ProjectStatus.Rejected, 0);\r\n    }\r\n\r\n    // ------- getters function ------\r\n    function getCompany(uint256 projectId) public view returns (address) {\r\n        return projectStorage.getCompany(projectId);\r\n    }\r\n\r\n    function getProjectRewards(uint256 projectId) public view returns (uint256) {\r\n        return projectStorage.getProjectRewards(projectId);\r\n    }\r\n    \r\n}",
  "sourcePath": "C:\\Users\\jared\\My Cloud\\NUS\\Y3S2\\IS4302\\Project\\CarbonCoin\\contracts\\Project.sol",
  "compiler": {
    "name": "solc",
    "version": "0.5.0+commit.1d4f565a.Emscripten.clang"
  },
  "schemaVersion": "3.4.4",
  "updatedAt": "2022-04-06T11:46:53.228Z",
  "networkType": "ethereum",
  "devdoc": {
    "methods": {}
  },
  "userdoc": {
    "methods": {}
  }
}