{
  "contractName": "Project",
  "abi": [
    {
      "inputs": [
        {
          "name": "regulatorContractAddress",
          "type": "address"
        },
        {
          "name": "companyContractAddress",
          "type": "address"
        },
        {
          "name": "projectStorageAddress",
          "type": "address"
        }
      ],
      "payable": false,
      "stateMutability": "nonpayable",
      "type": "constructor"
    },
    {
      "anonymous": false,
      "inputs": [
        {
          "indexed": false,
          "name": "requester",
          "type": "address"
        },
        {
          "indexed": false,
          "name": "projectName",
          "type": "string"
        }
      ],
      "name": "projectRequested",
      "type": "event"
    },
    {
      "constant": false,
      "inputs": [
        {
          "name": "projectName",
          "type": "string"
        }
      ],
      "name": "requestProject",
      "outputs": [],
      "payable": false,
      "stateMutability": "nonpayable",
      "type": "function"
    },
    {
      "constant": false,
      "inputs": [
        {
          "name": "projectId",
          "type": "uint256"
        },
        {
          "name": "awardedTokens",
          "type": "uint256"
        }
      ],
      "name": "approveProject",
      "outputs": [],
      "payable": false,
      "stateMutability": "nonpayable",
      "type": "function"
    },
    {
      "constant": false,
      "inputs": [
        {
          "name": "projectId",
          "type": "uint256"
        }
      ],
      "name": "rejectProject",
      "outputs": [],
      "payable": false,
      "stateMutability": "nonpayable",
      "type": "function"
    },
    {
      "constant": true,
      "inputs": [
        {
          "name": "projectId",
          "type": "uint256"
        }
      ],
      "name": "getCompany",
      "outputs": [
        {
          "name": "",
          "type": "address"
        }
      ],
      "payable": false,
      "stateMutability": "view",
      "type": "function"
    },
    {
      "constant": true,
      "inputs": [
        {
          "name": "projectId",
          "type": "uint256"
        }
      ],
      "name": "getProjectRewards",
      "outputs": [
        {
          "name": "",
          "type": "uint256"
        }
      ],
      "payable": false,
      "stateMutability": "view",
      "type": "function"
    },
    {
      "constant": true,
      "inputs": [
        {
          "name": "projectId",
          "type": "uint256"
        }
      ],
      "name": "getProjectStatus",
      "outputs": [
        {
          "name": "",
          "type": "uint8"
        }
      ],
      "payable": false,
      "stateMutability": "view",
      "type": "function"
    }
  ],
  "bytecode": "0x608060405234801561001057600080fd5b50604051606080610e938339810180604052606081101561003057600080fd5b81019080805190602001909291908051906020019092919080519060200190929190505050826000806101000a81548173ffffffffffffffffffffffffffffffffffffffff021916908373ffffffffffffffffffffffffffffffffffffffff16021790555081600160006101000a81548173ffffffffffffffffffffffffffffffffffffffff021916908373ffffffffffffffffffffffffffffffffffffffff16021790555080600260006101000a81548173ffffffffffffffffffffffffffffffffffffffff021916908373ffffffffffffffffffffffffffffffffffffffff160217905550505050610d6a806101296000396000f3fe608060405260043610610078576000357c0100000000000000000000000000000000000000000000000000000000900463ffffffff1680634f9463501461007d57806357d139171461014557806369b04f19146101c05780638b055d8b146101fb5780639675c0091461024a578063cafcc163146102a7575b600080fd5b34801561008957600080fd5b50610143600480360360208110156100a057600080fd5b81019080803590602001906401000000008111156100bd57600080fd5b8201836020820111156100cf57600080fd5b803590602001918460018302840111640100000000831117156100f157600080fd5b91908080601f016020809104026020016040519081016040528093929190818152602001838380828437600081840152601f19601f8201169050808301925050505050505091929192905050506102ec565b005b34801561015157600080fd5b5061017e6004803603602081101561016857600080fd5b810190808035906020019092919050505061065b565b604051808273ffffffffffffffffffffffffffffffffffffffff1673ffffffffffffffffffffffffffffffffffffffff16815260200191505060405180910390f35b3480156101cc57600080fd5b506101f9600480360360208110156101e357600080fd5b810190808035906020019092919050505061072e565b005b34801561020757600080fd5b506102346004803603602081101561021e57600080fd5b8101908080359060200190929190505050610963565b6040518082815260200191505060405180910390f35b34801561025657600080fd5b506102836004803603602081101561026d57600080fd5b8101908080359060200190929190505050610a36565b6040518082600281111561029357fe5b60ff16815260200191505060405180910390f35b3480156102b357600080fd5b506102ea600480360360408110156102ca57600080fd5b810190808035906020019092919080359060200190929190505050610b09565b005b600160009054906101000a900473ffffffffffffffffffffffffffffffffffffffff1673ffffffffffffffffffffffffffffffffffffffff1663673448dd336040518263ffffffff167c0100000000000000000000000000000000000000000000000000000000028152600401808273ffffffffffffffffffffffffffffffffffffffff1673ffffffffffffffffffffffffffffffffffffffff16815260200191505060206040518083038186803b1580156103a757600080fd5b505afa1580156103bb573d6000803e3d6000fd5b505050506040513d60208110156103d157600080fd5b81019080805190602001909291905050501515610456576040517f08c379a00000000000000000000000000000000000000000000000000000000081526004018080602001828103825260178152602001807f4e6f7420617574686f726973656420436f6d70616e792100000000000000000081525060200191505060405180910390fd5b600260009054906101000a900473ffffffffffffffffffffffffffffffffffffffff1673ffffffffffffffffffffffffffffffffffffffff16630ed047d4826040518263ffffffff167c01000000000000000000000000000000000000000000000000000000000281526004018080602001828103825283818151815260200191508051906020019080838360005b838110156105005780820151818401526020810190506104e5565b50505050905090810190601f16801561052d5780820380516001836020036101000a031916815260200191505b5092505050602060405180830381600087803b15801561054c57600080fd5b505af1158015610560573d6000803e3d6000fd5b505050506040513d602081101561057657600080fd5b8101908080519060200190929190505050507f8f6c6bbc1edbf39b935490b9489864702120c243449627f8803a0a16d2bab0e33382604051808373ffffffffffffffffffffffffffffffffffffffff1673ffffffffffffffffffffffffffffffffffffffff16815260200180602001828103825283818151815260200191508051906020019080838360005b8381101561061d578082015181840152602081019050610602565b50505050905090810190601f16801561064a5780820380516001836020036101000a031916815260200191505b50935050505060405180910390a150565b6000600260009054906101000a900473ffffffffffffffffffffffffffffffffffffffff1673ffffffffffffffffffffffffffffffffffffffff166357d13917836040518263ffffffff167c01000000000000000000000000000000000000000000000000000000000281526004018082815260200191505060206040518083038186803b1580156106ec57600080fd5b505afa158015610700573d6000803e3d6000fd5b505050506040513d602081101561071657600080fd5b81019080805190602001909291905050509050919050565b6000809054906101000a900473ffffffffffffffffffffffffffffffffffffffff1673ffffffffffffffffffffffffffffffffffffffff1663673448dd336040518263ffffffff167c0100000000000000000000000000000000000000000000000000000000028152600401808273ffffffffffffffffffffffffffffffffffffffff1673ffffffffffffffffffffffffffffffffffffffff16815260200191505060206040518083038186803b1580156107e857600080fd5b505afa1580156107fc573d6000803e3d6000fd5b505050506040513d602081101561081257600080fd5b81019080805190602001909291905050501515610897576040517f08c379a00000000000000000000000000000000000000000000000000000000081526004018080602001828103825260198152602001807f4e6f7420617574686f726973656420526567756c61746f72210000000000000081525060200191505060405180910390fd5b600260009054906101000a900473ffffffffffffffffffffffffffffffffffffffff1673ffffffffffffffffffffffffffffffffffffffff1663b63d9a1982600260006040518463ffffffff167c01000000000000000000000000000000000000000000000000000000000281526004018084815260200183600281111561091b57fe5b60ff1681526020018281526020019350505050600060405180830381600087803b15801561094857600080fd5b505af115801561095c573d6000803e3d6000fd5b5050505050565b6000600260009054906101000a900473ffffffffffffffffffffffffffffffffffffffff1673ffffffffffffffffffffffffffffffffffffffff16638b055d8b836040518263ffffffff167c01000000000000000000000000000000000000000000000000000000000281526004018082815260200191505060206040518083038186803b1580156109f457600080fd5b505afa158015610a08573d6000803e3d6000fd5b505050506040513d6020811015610a1e57600080fd5b81019080805190602001909291905050509050919050565b6000600260009054906101000a900473ffffffffffffffffffffffffffffffffffffffff1673ffffffffffffffffffffffffffffffffffffffff16639675c009836040518263ffffffff167c01000000000000000000000000000000000000000000000000000000000281526004018082815260200191505060206040518083038186803b158015610ac757600080fd5b505afa158015610adb573d6000803e3d6000fd5b505050506040513d6020811015610af157600080fd5b81019080805190602001909291905050509050919050565b6000809054906101000a900473ffffffffffffffffffffffffffffffffffffffff1673ffffffffffffffffffffffffffffffffffffffff1663673448dd336040518263ffffffff167c0100000000000000000000000000000000000000000000000000000000028152600401808273ffffffffffffffffffffffffffffffffffffffff1673ffffffffffffffffffffffffffffffffffffffff16815260200191505060206040518083038186803b158015610bc357600080fd5b505afa158015610bd7573d6000803e3d6000fd5b505050506040513d6020811015610bed57600080fd5b81019080805190602001909291905050501515610c72576040517f08c379a00000000000000000000000000000000000000000000000000000000081526004018080602001828103825260198152602001807f4e6f7420617574686f726973656420526567756c61746f72210000000000000081525060200191505060405180910390fd5b600260009054906101000a900473ffffffffffffffffffffffffffffffffffffffff1673ffffffffffffffffffffffffffffffffffffffff1663b63d9a19836001846040518463ffffffff167c010000000000000000000000000000000000000000000000000000000002815260040180848152602001836002811115610cf557fe5b60ff1681526020018281526020019350505050600060405180830381600087803b158015610d2257600080fd5b505af1158015610d36573d6000803e3d6000fd5b50505050505056fea165627a7a72305820a48d396f008cb9303a3ae14b56d5acc370cc54afe9b7ea39d28be67fa3b19afc0029",
  "source": "pragma solidity ^0.5.0;\r\n\r\nimport './Regulator.sol';\r\nimport './Company.sol';\r\nimport './ProjectStorage.sol';\r\nimport './CarbonToken.sol';\r\n\r\ncontract Project {\r\n    Regulator regulatorContract;\r\n    Company companyContract;\r\n\r\n    ProjectStorage projectStorage;\r\n    // CarbonToken carbonContract;\r\n\r\n    enum ProjectStatus {\r\n        Requested,\r\n        Approved,\r\n        Rejected\r\n    }\r\n\r\n\r\n    event projectRequested(address requester, string projectName);\r\n\r\n    constructor(Regulator regulatorContractAddress, Company companyContractAddress, ProjectStorage projectStorageAddress) public {\r\n        regulatorContract = regulatorContractAddress;\r\n        companyContract = companyContractAddress;\r\n        projectStorage = projectStorageAddress;\r\n    }\r\n\r\n    modifier companyOnly() {\r\n        require(companyContract.isApproved(msg.sender), 'Not authorised Company!');\r\n        _;\r\n    }\r\n\r\n    modifier regulatorOnly() {\r\n        require(regulatorContract.isApproved(msg.sender), 'Not authorised Regulator!');\r\n        _;\r\n    }\r\n\r\n    function requestProject(string memory projectName) public companyOnly {\r\n        projectStorage.addProject(projectName);\r\n        emit projectRequested(msg.sender, projectName);\r\n    }\r\n\r\n    function approveProject(uint256 projectId, uint256 awardedTokens) public regulatorOnly {\r\n        projectStorage.updateProject(projectId, ProjectStorage.ProjectStatus.Approved, awardedTokens);\r\n        // carbonContract.mintFor(projectStorage.getCompany(projectId), awardedTokens);\r\n    }\r\n\r\n    function rejectProject(uint256 projectId) public regulatorOnly() {\r\n        projectStorage.updateProject(projectId, ProjectStorage.ProjectStatus.Rejected, 0);\r\n    }\r\n\r\n    // ------- getters function ------\r\n    function getCompany(uint256 projectId) public view returns (address) {\r\n        return projectStorage.getCompany(projectId);\r\n    }\r\n\r\n    function getProjectRewards(uint256 projectId) public view returns (uint256) {\r\n        return projectStorage.getProjectRewards(projectId);\r\n    }\r\n\r\n    function getProjectStatus(uint256 projectId) public view returns (ProjectStorage.ProjectStatus) {\r\n        return projectStorage.getProjectStatus(projectId);\r\n    }\r\n    \r\n}",
  "sourcePath": "C:\\Users\\Daniel\\Desktop\\IS4302-CarbonCoin\\contracts\\Project.sol",
  "compiler": {
    "name": "solc",
    "version": "0.5.0+commit.1d4f565a.Emscripten.clang"
  },
  "schemaVersion": "3.4.4",
  "updatedAt": "2022-04-09T16:39:44.675Z",
  "devdoc": {
    "methods": {}
  },
  "userdoc": {
    "methods": {}
  }
}