{
  "contractName": "ProjectStorage",
  "abi": [
    {
      "inputs": [],
      "payable": false,
      "stateMutability": "nonpayable",
      "type": "constructor"
    },
    {
      "constant": false,
      "inputs": [
        {
          "name": "_address",
          "type": "address"
        }
      ],
      "name": "setProjectAddress",
      "outputs": [],
      "payable": false,
      "stateMutability": "nonpayable",
      "type": "function"
    },
    {
      "constant": false,
      "inputs": [
        {
          "name": "projectName",
          "type": "string"
        }
      ],
      "name": "addProject",
      "outputs": [],
      "payable": false,
      "stateMutability": "nonpayable",
      "type": "function"
    },
    {
      "constant": false,
      "inputs": [
        {
          "name": "projectId",
          "type": "uint256"
        },
        {
          "name": "_status",
          "type": "uint8"
        },
        {
          "name": "awardedTokens",
          "type": "uint256"
        }
      ],
      "name": "updateProject",
      "outputs": [],
      "payable": false,
      "stateMutability": "nonpayable",
      "type": "function"
    },
    {
      "constant": true,
      "inputs": [
        {
          "name": "projectId",
          "type": "uint256"
        }
      ],
      "name": "getCompany",
      "outputs": [
        {
          "name": "",
          "type": "address"
        }
      ],
      "payable": false,
      "stateMutability": "view",
      "type": "function"
    },
    {
      "constant": true,
      "inputs": [
        {
          "name": "projectId",
          "type": "uint256"
        }
      ],
      "name": "getProjectRewards",
      "outputs": [
        {
          "name": "",
          "type": "uint256"
        }
      ],
      "payable": false,
      "stateMutability": "view",
      "type": "function"
    }
  ],
  "bytecode": "0x6080604052600060035534801561001557600080fd5b50336000806101000a81548173ffffffffffffffffffffffffffffffffffffffff021916908373ffffffffffffffffffffffffffffffffffffffff160217905550610841806100656000396000f3fe60806040526004361061006d576000357c0100000000000000000000000000000000000000000000000000000000900463ffffffff1680630ed047d41461007257806357d139171461013a5780638b055d8b146101b5578063b63d9a1914610204578063fce0f92814610256575b600080fd5b34801561007e57600080fd5b506101386004803603602081101561009557600080fd5b81019080803590602001906401000000008111156100b257600080fd5b8201836020820111156100c457600080fd5b803590602001918460018302840111640100000000831117156100e657600080fd5b91908080601f016020809104026020016040519081016040528093929190818152602001838380828437600081840152601f19601f8201169050808301925050505050505091929192905050506102a7565b005b34801561014657600080fd5b506101736004803603602081101561015d57600080fd5b8101908080359060200190929190505050610474565b604051808273ffffffffffffffffffffffffffffffffffffffff1673ffffffffffffffffffffffffffffffffffffffff16815260200191505060405180910390f35b3480156101c157600080fd5b506101ee600480360360208110156101d857600080fd5b81019080803590602001909291905050506104b4565b6040518082815260200191505060405180910390f35b34801561021057600080fd5b506102546004803603606081101561022757600080fd5b8101908080359060200190929190803560ff169060200190929190803590602001909291905050506104d4565b005b34801561026257600080fd5b506102a56004803603602081101561027957600080fd5b81019080803573ffffffffffffffffffffffffffffffffffffffff169060200190929190505050610669565b005b600160009054906101000a900473ffffffffffffffffffffffffffffffffffffffff1673ffffffffffffffffffffffffffffffffffffffff163373ffffffffffffffffffffffffffffffffffffffff1614151561036c576040517f08c379a00000000000000000000000000000000000000000000000000000000081526004018080602001828103825260158152602001807f556e617574686f7269736564206164647265737321000000000000000000000081525060200191505060405180910390fd5b6080604051908101604052808281526020013273ffffffffffffffffffffffffffffffffffffffff168152602001600060028111156103a757fe5b8152602001600081525060026000600354815260200190815260200160002060008201518160000190805190602001906103e2929190610770565b5060208201518160010160006101000a81548173ffffffffffffffffffffffffffffffffffffffff021916908373ffffffffffffffffffffffffffffffffffffffff16021790555060408201518160010160146101000a81548160ff0219169083600281111561044e57fe5b021790555060608201518160020155905050600160036000828254019250508190555050565b60006002600083815260200190815260200160002060010160009054906101000a900473ffffffffffffffffffffffffffffffffffffffff169050919050565b600060026000838152602001908152602001600020600201549050919050565b600160009054906101000a900473ffffffffffffffffffffffffffffffffffffffff1673ffffffffffffffffffffffffffffffffffffffff163373ffffffffffffffffffffffffffffffffffffffff16141515610599576040517f08c379a00000000000000000000000000000000000000000000000000000000081526004018080602001828103825260158152602001807f556e617574686f7269736564206164647265737321000000000000000000000081525060200191505060405180910390fd5b60035483101515610612576040517f08c379a00000000000000000000000000000000000000000000000000000000081526004018080602001828103825260138152602001807f496e76616c69642050726f6a656374204944210000000000000000000000000081525060200191505060405180910390fd5b816002600085815260200190815260200160002060010160146101000a81548160ff0219169083600281111561064457fe5b0217905550806002600085815260200190815260200160002060020181905550505050565b6000809054906101000a900473ffffffffffffffffffffffffffffffffffffffff1673ffffffffffffffffffffffffffffffffffffffff163373ffffffffffffffffffffffffffffffffffffffff1614151561072d576040517f08c379a00000000000000000000000000000000000000000000000000000000081526004018080602001828103825260168152602001807f4e6f74206f776e6572206f6620636f6e7472616374210000000000000000000081525060200191505060405180910390fd5b806000806101000a81548173ffffffffffffffffffffffffffffffffffffffff021916908373ffffffffffffffffffffffffffffffffffffffff16021790555050565b828054600181600116156101000203166002900490600052602060002090601f016020900481019282601f106107b157805160ff19168380011785556107df565b828001600101855582156107df579182015b828111156107de5782518255916020019190600101906107c3565b5b5090506107ec91906107f0565b5090565b61081291905b8082111561080e5760008160009055506001016107f6565b5090565b9056fea165627a7a72305820f737762dcc1b68a7a2e3eacca968745fd0a6e15d984150668d52c0bb7798c7140029",
  "source": "pragma solidity ^0.5.0;\r\n\r\ncontract ProjectStorage {\r\n\r\n    address owner;\r\n\r\n    enum ProjectStatus {\r\n        Requested,\r\n        Approved,\r\n        Rejected\r\n    }\r\n\r\n    struct ProjectInfo {\r\n        string name;\r\n        address by;\r\n        ProjectStatus status;\r\n        uint256 tokensAwarded;\r\n    }\r\n\r\n    address projectAddress;\r\n    mapping(uint256 => ProjectInfo) projectInfo;\r\n    uint256 numProjects = 0;\r\n\r\n    constructor() public {\r\n        owner = msg.sender;\r\n    }\r\n\r\n    // ------ modifiers ------\r\n\r\n    // access restrictions\r\n    modifier ownerOnly() {\r\n        require(msg.sender == owner, 'Not owner of contract!');\r\n        _; \r\n    }\r\n\r\n    modifier approvedProjectContract() {\r\n        require(msg.sender == projectAddress, 'Unauthorised address!');\r\n        _;\r\n    }\r\n\r\n    // ------ Class Functions ------\r\n    function setProjectAddress(address _address) public ownerOnly() {\r\n        owner = _address;\r\n    }\r\n\r\n    // adds project details into storage\r\n    function addProject(string memory projectName) public approvedProjectContract {\r\n        projectInfo[numProjects] = ProjectInfo({ name: projectName, by: tx.origin, status: ProjectStatus.Requested, tokensAwarded: 0 });\r\n        numProjects += 1;\r\n    }\r\n\r\n    // update project details\r\n    function updateProject(uint256 projectId, ProjectStatus _status, uint256 awardedTokens) public approvedProjectContract {\r\n        require(projectId < numProjects, \"Invalid Project ID!\");\r\n        projectInfo[projectId].status = _status;\r\n        projectInfo[projectId].tokensAwarded = awardedTokens;\r\n    }\r\n\r\n    // ------- getter methods ------\r\n    function getCompany(uint256 projectId) public view returns(address) {\r\n        return projectInfo[projectId].by;\r\n    }\r\n\r\n    function getProjectRewards(uint256 projectId) public view returns (uint256) {\r\n        return projectInfo[projectId].tokensAwarded;\r\n    }\r\n}",
  "sourcePath": "C:\\Users\\jared\\My Cloud\\NUS\\Y3S2\\IS4302\\Project\\CarbonCoin\\contracts\\ProjectStorage.sol",
  "compiler": {
    "name": "solc",
    "version": "0.5.0+commit.1d4f565a.Emscripten.clang"
  },
  "schemaVersion": "3.4.4",
  "updatedAt": "2022-04-06T10:37:13.057Z",
  "networkType": "ethereum",
  "devdoc": {
    "methods": {}
  },
  "userdoc": {
    "methods": {}
  }
}