{
  "contractName": "ProjectStorage",
  "abi": [
    {
      "constant": false,
      "inputs": [
        {
          "name": "projectName",
          "type": "string"
        }
      ],
      "name": "addProject",
      "outputs": [],
      "payable": false,
      "stateMutability": "nonpayable",
      "type": "function"
    },
    {
      "constant": false,
      "inputs": [
        {
          "name": "projectId",
          "type": "uint256"
        },
        {
          "name": "_status",
          "type": "uint8"
        },
        {
          "name": "awardedTokens",
          "type": "uint256"
        }
      ],
      "name": "updateProject",
      "outputs": [],
      "payable": false,
      "stateMutability": "nonpayable",
      "type": "function"
    },
    {
      "constant": true,
      "inputs": [
        {
          "name": "projectId",
          "type": "uint256"
        }
      ],
      "name": "getCompany",
      "outputs": [
        {
          "name": "",
          "type": "address"
        }
      ],
      "payable": false,
      "stateMutability": "view",
      "type": "function"
    }
  ],
  "bytecode": "0x6080604052600060025534801561001557600080fd5b50610662806100256000396000f3fe608060405260043610610057576000357c0100000000000000000000000000000000000000000000000000000000900463ffffffff1680630ed047d41461005c57806357d1391714610124578063b63d9a191461019f575b600080fd5b34801561006857600080fd5b506101226004803603602081101561007f57600080fd5b810190808035906020019064010000000081111561009c57600080fd5b8201836020820111156100ae57600080fd5b803590602001918460018302840111640100000000831117156100d057600080fd5b91908080601f016020809104026020016040519081016040528093929190818152602001838380828437600081840152601f19601f8201169050808301925050505050505091929192905050506101f1565b005b34801561013057600080fd5b5061015d6004803603602081101561014757600080fd5b81019080803590602001909291905050506103bd565b604051808273ffffffffffffffffffffffffffffffffffffffff1673ffffffffffffffffffffffffffffffffffffffff16815260200191505060405180910390f35b3480156101ab57600080fd5b506101ef600480360360608110156101c257600080fd5b8101908080359060200190929190803560ff169060200190929190803590602001909291905050506103fd565b005b6000809054906101000a900473ffffffffffffffffffffffffffffffffffffffff1673ffffffffffffffffffffffffffffffffffffffff163373ffffffffffffffffffffffffffffffffffffffff161415156102b5576040517f08c379a00000000000000000000000000000000000000000000000000000000081526004018080602001828103825260158152602001807f556e617574686f7269736564206164647265737321000000000000000000000081525060200191505060405180910390fd5b6080604051908101604052808281526020013273ffffffffffffffffffffffffffffffffffffffff168152602001600060028111156102f057fe5b81526020016000815250600160006002548152602001908152602001600020600082015181600001908051906020019061032b929190610591565b5060208201518160010160006101000a81548173ffffffffffffffffffffffffffffffffffffffff021916908373ffffffffffffffffffffffffffffffffffffffff16021790555060408201518160010160146101000a81548160ff0219169083600281111561039757fe5b021790555060608201518160020155905050600160026000828254019250508190555050565b60006001600083815260200190815260200160002060010160009054906101000a900473ffffffffffffffffffffffffffffffffffffffff169050919050565b6000809054906101000a900473ffffffffffffffffffffffffffffffffffffffff1673ffffffffffffffffffffffffffffffffffffffff163373ffffffffffffffffffffffffffffffffffffffff161415156104c1576040517f08c379a00000000000000000000000000000000000000000000000000000000081526004018080602001828103825260158152602001807f556e617574686f7269736564206164647265737321000000000000000000000081525060200191505060405180910390fd5b6002548310151561053a576040517f08c379a00000000000000000000000000000000000000000000000000000000081526004018080602001828103825260138152602001807f496e76616c69642050726f6a656374204944210000000000000000000000000081525060200191505060405180910390fd5b816001600085815260200190815260200160002060010160146101000a81548160ff0219169083600281111561056c57fe5b0217905550806001600085815260200190815260200160002060020181905550505050565b828054600181600116156101000203166002900490600052602060002090601f016020900481019282601f106105d257805160ff1916838001178555610600565b82800160010185558215610600579182015b828111156105ff5782518255916020019190600101906105e4565b5b50905061060d9190610611565b5090565b61063391905b8082111561062f576000816000905550600101610617565b5090565b9056fea165627a7a72305820e26c4dfd2ee2b0b780ff202cefceb12e05905f31aa0ce6dd2806a9880ff3c0fe0029",
  "source": "pragma solidity ^0.5.0;\r\n\r\ncontract ProjectStorage {\r\n\r\n    enum ProjectStatus {\r\n        Requested,\r\n        Approved,\r\n        Rejected\r\n    }\r\n\r\n    struct ProjectInfo {\r\n        string name;\r\n        address by;\r\n        ProjectStatus status;\r\n        uint256 tokensAwarded;\r\n    }\r\n\r\n    address projectAddress;\r\n    mapping(uint256 => ProjectInfo) projectInfo;\r\n    uint256 numProjects = 0;\r\n\r\n    // access restrictions\r\n    modifier approvedProjectContract() {\r\n        require(msg.sender == projectAddress, 'Unauthorised address!');\r\n        _;\r\n    }\r\n\r\n    function addProject(string memory projectName) public approvedProjectContract {\r\n        projectInfo[numProjects] = ProjectInfo({ name: projectName, by: tx.origin, status: ProjectStatus.Requested, tokensAwarded: 0 });\r\n\r\n        numProjects += 1;\r\n    }\r\n\r\n    function updateProject(uint256 projectId, ProjectStatus _status, uint256 awardedTokens) public approvedProjectContract {\r\n        require(projectId < numProjects, \"Invalid Project ID!\");\r\n        projectInfo[projectId].status = _status;\r\n        projectInfo[projectId].tokensAwarded = awardedTokens;\r\n    }\r\n\r\n    // getters\r\n    function getCompany(uint256 projectId) public view returns(address) {\r\n        return projectInfo[projectId].by;\r\n    }\r\n}",
  "sourcePath": "C:\\Users\\Daniel\\Desktop\\IS4302-CarbonCoin\\contracts\\ProjectStorage.sol",
  "compiler": {
    "name": "solc",
    "version": "0.5.0+commit.1d4f565a.Emscripten.clang"
  },
  "schemaVersion": "3.4.4",
  "updatedAt": "2022-04-05T08:18:48.724Z",
  "devdoc": {
    "methods": {}
  },
  "userdoc": {
    "methods": {}
  }
}