{
  "contractName": "ProjectStorage",
  "abi": [
    {
      "inputs": [],
      "payable": false,
      "stateMutability": "nonpayable",
      "type": "constructor"
    },
    {
      "anonymous": false,
      "inputs": [
        {
          "indexed": false,
          "name": "",
          "type": "address"
        }
      ],
      "name": "ProjectAddressSet",
      "type": "event"
    },
    {
      "constant": false,
      "inputs": [
        {
          "name": "_address",
          "type": "address"
        }
      ],
      "name": "setProjectAddress",
      "outputs": [],
      "payable": false,
      "stateMutability": "nonpayable",
      "type": "function"
    },
    {
      "constant": false,
      "inputs": [
        {
          "name": "projectName",
          "type": "string"
        }
      ],
      "name": "addProject",
      "outputs": [
        {
          "name": "",
          "type": "uint256"
        }
      ],
      "payable": false,
      "stateMutability": "nonpayable",
      "type": "function"
    },
    {
      "constant": false,
      "inputs": [
        {
          "name": "projectId",
          "type": "uint256"
        },
        {
          "name": "_status",
          "type": "uint8"
        },
        {
          "name": "awardedTokens",
          "type": "uint256"
        }
      ],
      "name": "updateProject",
      "outputs": [],
      "payable": false,
      "stateMutability": "nonpayable",
      "type": "function"
    },
    {
      "constant": true,
      "inputs": [
        {
          "name": "projectId",
          "type": "uint256"
        }
      ],
      "name": "getCompany",
      "outputs": [
        {
          "name": "",
          "type": "address"
        }
      ],
      "payable": false,
      "stateMutability": "view",
      "type": "function"
    },
    {
      "constant": true,
      "inputs": [
        {
          "name": "projectId",
          "type": "uint256"
        }
      ],
      "name": "getProjectRewards",
      "outputs": [
        {
          "name": "",
          "type": "uint256"
        }
      ],
      "payable": false,
      "stateMutability": "view",
      "type": "function"
    },
    {
      "constant": true,
      "inputs": [
        {
          "name": "projectId",
          "type": "uint256"
        }
      ],
      "name": "getProjectStatus",
      "outputs": [
        {
          "name": "",
          "type": "uint8"
        }
      ],
      "payable": false,
      "stateMutability": "view",
      "type": "function"
    }
  ],
  "bytecode": "0x6080604052600060035534801561001557600080fd5b50336000806101000a81548173ffffffffffffffffffffffffffffffffffffffff021916908373ffffffffffffffffffffffffffffffffffffffff16021790555061096b806100656000396000f3fe608060405260043610610078576000357c0100000000000000000000000000000000000000000000000000000000900463ffffffff1680630ed047d41461007d57806357d13917146101595780638b055d8b146101d45780639675c00914610223578063b63d9a1914610280578063fce0f928146102d2575b600080fd5b34801561008957600080fd5b50610143600480360360208110156100a057600080fd5b81019080803590602001906401000000008111156100bd57600080fd5b8201836020820111156100cf57600080fd5b803590602001918460018302840111640100000000831117156100f157600080fd5b91908080601f016020809104026020016040519081016040528093929190818152602001838380828437600081840152601f19601f820116905080830192505050505050509192919290505050610323565b6040518082815260200191505060405180910390f35b34801561016557600080fd5b506101926004803603602081101561017c57600080fd5b810190808035906020019092919050505061050e565b604051808273ffffffffffffffffffffffffffffffffffffffff1673ffffffffffffffffffffffffffffffffffffffff16815260200191505060405180910390f35b3480156101e057600080fd5b5061020d600480360360208110156101f757600080fd5b810190808035906020019092919050505061054e565b6040518082815260200191505060405180910390f35b34801561022f57600080fd5b5061025c6004803603602081101561024657600080fd5b810190808035906020019092919050505061056e565b6040518082600281111561026c57fe5b60ff16815260200191505060405180910390f35b34801561028c57600080fd5b506102d0600480360360608110156102a357600080fd5b8101908080359060200190929190803560ff1690602001909291908035906020019092919050505061059b565b005b3480156102de57600080fd5b50610321600480360360208110156102f557600080fd5b81019080803573ffffffffffffffffffffffffffffffffffffffff169060200190929190505050610730565b005b6000600160009054906101000a900473ffffffffffffffffffffffffffffffffffffffff1673ffffffffffffffffffffffffffffffffffffffff163373ffffffffffffffffffffffffffffffffffffffff161415156103ea576040517f08c379a00000000000000000000000000000000000000000000000000000000081526004018080602001828103825260158152602001807f556e617574686f7269736564206164647265737321000000000000000000000081525060200191505060405180910390fd5b60a06040519081016040528060035481526020018381526020013273ffffffffffffffffffffffffffffffffffffffff1681526020016000600281111561042d57fe5b8152602001600081525060026000600354815260200190815260200160002060008201518160000155602082015181600101908051906020019061047292919061089a565b5060408201518160020160006101000a81548173ffffffffffffffffffffffffffffffffffffffff021916908373ffffffffffffffffffffffffffffffffffffffff16021790555060608201518160020160146101000a81548160ff021916908360028111156104de57fe5b02179055506080820151816003015590505060016003600082825401925050819055506001600354039050919050565b60006002600083815260200190815260200160002060020160009054906101000a900473ffffffffffffffffffffffffffffffffffffffff169050919050565b600060026000838152602001908152602001600020600301549050919050565b60006002600083815260200190815260200160002060020160149054906101000a900460ff169050919050565b600160009054906101000a900473ffffffffffffffffffffffffffffffffffffffff1673ffffffffffffffffffffffffffffffffffffffff163373ffffffffffffffffffffffffffffffffffffffff16141515610660576040517f08c379a00000000000000000000000000000000000000000000000000000000081526004018080602001828103825260158152602001807f556e617574686f7269736564206164647265737321000000000000000000000081525060200191505060405180910390fd5b600354831015156106d9576040517f08c379a00000000000000000000000000000000000000000000000000000000081526004018080602001828103825260138152602001807f496e76616c69642050726f6a656374204944210000000000000000000000000081525060200191505060405180910390fd5b816002600085815260200190815260200160002060020160146101000a81548160ff0219169083600281111561070b57fe5b0217905550806002600085815260200190815260200160002060030181905550505050565b6000809054906101000a900473ffffffffffffffffffffffffffffffffffffffff1673ffffffffffffffffffffffffffffffffffffffff163373ffffffffffffffffffffffffffffffffffffffff161415156107f4576040517f08c379a00000000000000000000000000000000000000000000000000000000081526004018080602001828103825260168152602001807f4e6f74206f776e6572206f6620636f6e7472616374210000000000000000000081525060200191505060405180910390fd5b806000806101000a81548173ffffffffffffffffffffffffffffffffffffffff021916908373ffffffffffffffffffffffffffffffffffffffff1602179055507f9d1473d3241052c57392b2e8020ac779df484472a44d38c4fdd7e6b0b1ce1b7281604051808273ffffffffffffffffffffffffffffffffffffffff1673ffffffffffffffffffffffffffffffffffffffff16815260200191505060405180910390a150565b828054600181600116156101000203166002900490600052602060002090601f016020900481019282601f106108db57805160ff1916838001178555610909565b82800160010185558215610909579182015b828111156109085782518255916020019190600101906108ed565b5b509050610916919061091a565b5090565b61093c91905b80821115610938576000816000905550600101610920565b5090565b9056fea165627a7a723058204586e5d96dc05b82c4659f7f9411c0847f152951a83398ab06d07e34651986290029",
  "source": "pragma solidity ^0.5.0;\r\n\r\ncontract ProjectStorage {\r\n\r\n    address owner;\r\n\r\n    enum ProjectStatus {\r\n        Requested,\r\n        Approved,\r\n        Rejected\r\n    }\r\n\r\n    struct ProjectInfo {\r\n        uint256 projId;\r\n        string name;\r\n        address by;\r\n        ProjectStatus status;\r\n        uint256 tokensAwarded;\r\n    }\r\n\r\n    address projectAddress;\r\n    mapping(uint256 => ProjectInfo) projectInfo;\r\n    uint256 numProjects = 0;\r\n\r\n    // events\r\n    event ProjectAddressSet(address);\r\n\r\n    constructor() public {\r\n        owner = msg.sender;\r\n    }\r\n\r\n    // ------ modifiers ------\r\n\r\n    // access restrictions\r\n    modifier ownerOnly() {\r\n        require(msg.sender == owner, 'Not owner of contract!');\r\n        _; \r\n    }\r\n\r\n    modifier approvedProjectContract() {\r\n        require(msg.sender == projectAddress, 'Unauthorised address!');\r\n        _;\r\n    }\r\n\r\n    // ------ Class Functions ------\r\n    function setProjectAddress(address _address) public ownerOnly() {\r\n        owner = _address;\r\n        emit ProjectAddressSet(_address);\r\n    }\r\n\r\n    // adds project details into storage\r\n    function addProject(string memory projectName) public approvedProjectContract returns (uint256) {\r\n        projectInfo[numProjects] = ProjectInfo({projId: numProjects, name: projectName, by: tx.origin, status: ProjectStatus.Requested, tokensAwarded: 0 });\r\n        numProjects += 1;\r\n        return numProjects - 1;\r\n    }\r\n\r\n    // update project details\r\n    function updateProject(uint256 projectId, ProjectStatus _status, uint256 awardedTokens) public approvedProjectContract {\r\n        require(projectId < numProjects, \"Invalid Project ID!\");\r\n        projectInfo[projectId].status = _status;\r\n        projectInfo[projectId].tokensAwarded = awardedTokens;\r\n    }\r\n\r\n    // ------- getter methods ------\r\n    function getCompany(uint256 projectId) public view returns(address) {\r\n        return projectInfo[projectId].by;\r\n    }\r\n\r\n    function getProjectRewards(uint256 projectId) public view returns (uint256) {\r\n        return projectInfo[projectId].tokensAwarded;\r\n    }\r\n\r\n    function getProjectStatus(uint256 projectId) public view returns (ProjectStatus) {\r\n        return projectInfo[projectId].status;\r\n    }\r\n}",
  "sourcePath": "C:\\Users\\Daniel\\Desktop\\IS4302-CarbonCoin\\contracts\\ProjectStorage.sol",
  "compiler": {
    "name": "solc",
    "version": "0.5.0+commit.1d4f565a.Emscripten.clang"
  },
  "schemaVersion": "3.4.4",
  "updatedAt": "2022-04-09T16:39:44.678Z",
  "devdoc": {
    "methods": {}
  },
  "userdoc": {
    "methods": {}
  }
}