{
  "contractName": "Regulator",
  "abi": [
    {
      "inputs": [],
      "payable": false,
      "stateMutability": "nonpayable",
      "type": "constructor"
    },
    {
      "constant": false,
      "inputs": [
        {
          "name": "_address",
          "type": "address"
        }
      ],
      "name": "setUserDataStorageAddress",
      "outputs": [],
      "payable": false,
      "stateMutability": "nonpayable",
      "type": "function"
    },
    {
      "constant": false,
      "inputs": [
        {
          "name": "name",
          "type": "string"
        },
        {
          "name": "country",
          "type": "string"
        },
        {
          "name": "toApprove",
          "type": "address"
        }
      ],
      "name": "addRegulator",
      "outputs": [],
      "payable": false,
      "stateMutability": "nonpayable",
      "type": "function"
    },
    {
      "constant": false,
      "inputs": [
        {
          "name": "toRemove",
          "type": "address"
        }
      ],
      "name": "removeRegulator",
      "outputs": [],
      "payable": false,
      "stateMutability": "nonpayable",
      "type": "function"
    },
    {
      "constant": true,
      "inputs": [
        {
          "name": "_address",
          "type": "address"
        }
      ],
      "name": "isAuthorised",
      "outputs": [
        {
          "name": "",
          "type": "bool"
        }
      ],
      "payable": false,
      "stateMutability": "view",
      "type": "function"
    }
  ],
  "bytecode": "0x608060405234801561001057600080fd5b50336000806101000a81548173ffffffffffffffffffffffffffffffffffffffff021916908373ffffffffffffffffffffffffffffffffffffffff1602179055506109aa806100606000396000f3fe608060405260043610610062576000357c0100000000000000000000000000000000000000000000000000000000900463ffffffff168063337cfb7814610067578063379f5fed146101e657806351b699cd14610237578063f3730688146102a0575b600080fd5b34801561007357600080fd5b506101e46004803603606081101561008a57600080fd5b81019080803590602001906401000000008111156100a757600080fd5b8201836020820111156100b957600080fd5b803590602001918460018302840111640100000000831117156100db57600080fd5b91908080601f016020809104026020016040519081016040528093929190818152602001838380828437600081840152601f19601f8201169050808301925050505050505091929192908035906020019064010000000081111561013e57600080fd5b82018360208201111561015057600080fd5b8035906020019184600183028401116401000000008311171561017257600080fd5b91908080601f016020809104026020016040519081016040528093929190818152602001838380828437600081840152601f19601f820116905080830192505050505050509192919290803573ffffffffffffffffffffffffffffffffffffffff1690602001909291905050506102f1565b005b3480156101f257600080fd5b506102356004803603602081101561020957600080fd5b81019080803573ffffffffffffffffffffffffffffffffffffffff16906020019092919050505061058f565b005b34801561024357600080fd5b506102866004803603602081101561025a57600080fd5b81019080803573ffffffffffffffffffffffffffffffffffffffff169060200190929190505050610751565b604051808215151515815260200191505060405180910390f35b3480156102ac57600080fd5b506102ef600480360360208110156102c357600080fd5b81019080803573ffffffffffffffffffffffffffffffffffffffff169060200190929190505050610850565b005b6000809054906101000a900473ffffffffffffffffffffffffffffffffffffffff1673ffffffffffffffffffffffffffffffffffffffff163373ffffffffffffffffffffffffffffffffffffffff161415156103db576040517f08c379a00000000000000000000000000000000000000000000000000000000081526004018080602001828103825260328152602001807f4f6e6c7920476f7665726e696e6720426f647920286f776e657229206973206181526020017f6c6c6f77656420746f20646f20746869732e000000000000000000000000000081525060400191505060405180910390fd5b600160009054906101000a900473ffffffffffffffffffffffffffffffffffffffff1673ffffffffffffffffffffffffffffffffffffffff1663337cfb788484846040518463ffffffff167c01000000000000000000000000000000000000000000000000000000000281526004018080602001806020018473ffffffffffffffffffffffffffffffffffffffff1673ffffffffffffffffffffffffffffffffffffffff168152602001838103835286818151815260200191508051906020019080838360005b838110156104bd5780820151818401526020810190506104a2565b50505050905090810190601f1680156104ea5780820380516001836020036101000a031916815260200191505b50838103825285818151815260200191508051906020019080838360005b83811015610523578082015181840152602081019050610508565b50505050905090810190601f1680156105505780820380516001836020036101000a031916815260200191505b5095505050505050600060405180830381600087803b15801561057257600080fd5b505af1158015610586573d6000803e3d6000fd5b50505050505050565b6000809054906101000a900473ffffffffffffffffffffffffffffffffffffffff1673ffffffffffffffffffffffffffffffffffffffff163373ffffffffffffffffffffffffffffffffffffffff16141515610679576040517f08c379a00000000000000000000000000000000000000000000000000000000081526004018080602001828103825260328152602001807f4f6e6c7920476f7665726e696e6720426f647920286f776e657229206973206181526020017f6c6c6f77656420746f20646f20746869732e000000000000000000000000000081525060400191505060405180910390fd5b600160009054906101000a900473ffffffffffffffffffffffffffffffffffffffff1673ffffffffffffffffffffffffffffffffffffffff1663379f5fed826040518263ffffffff167c0100000000000000000000000000000000000000000000000000000000028152600401808273ffffffffffffffffffffffffffffffffffffffff1673ffffffffffffffffffffffffffffffffffffffff168152602001915050600060405180830381600087803b15801561073657600080fd5b505af115801561074a573d6000803e3d6000fd5b5050505050565b6000600160009054906101000a900473ffffffffffffffffffffffffffffffffffffffff1673ffffffffffffffffffffffffffffffffffffffff166331905073836040518263ffffffff167c0100000000000000000000000000000000000000000000000000000000028152600401808273ffffffffffffffffffffffffffffffffffffffff1673ffffffffffffffffffffffffffffffffffffffff16815260200191505060206040518083038186803b15801561080e57600080fd5b505afa158015610822573d6000803e3d6000fd5b505050506040513d602081101561083857600080fd5b81019080805190602001909291905050509050919050565b6000809054906101000a900473ffffffffffffffffffffffffffffffffffffffff1673ffffffffffffffffffffffffffffffffffffffff163373ffffffffffffffffffffffffffffffffffffffff1614151561093a576040517f08c379a00000000000000000000000000000000000000000000000000000000081526004018080602001828103825260328152602001807f4f6e6c7920476f7665726e696e6720426f647920286f776e657229206973206181526020017f6c6c6f77656420746f20646f20746869732e000000000000000000000000000081525060400191505060405180910390fd5b80600160006101000a81548173ffffffffffffffffffffffffffffffffffffffff021916908373ffffffffffffffffffffffffffffffffffffffff1602179055505056fea165627a7a723058206bd7661a6608fefe89017141736c8099cbf7055f755859867452ff28bb04b66c0029",
  "source": "pragma solidity ^0.5.0;\r\n\r\nimport \"./UserDataStorage.sol\";\r\n\r\ncontract Regulator {\r\n    address owner;\r\n    UserDataStorage dataStorage;\r\n\r\n    constructor() public {\r\n        owner = msg.sender;\r\n    }\r\n\r\n    // Access Restriction to only allow owner of contract to call methods.\r\n    modifier ownerOnly() {\r\n        require(msg.sender == owner, \"Only Governing Body (owner) is allowed to do this.\");\r\n        _;\r\n    }\r\n\r\n    // setter for UserDataStorage.\r\n    function setUserDataStorageAddress(address _address) public ownerOnly {\r\n        dataStorage = UserDataStorage(_address);\r\n    }\r\n\r\n    // For contract owner to approve Regulators\r\n    function addRegulator(string memory name, string memory country, address toApprove) public ownerOnly {\r\n        dataStorage.addRegulator(name, country, toApprove);\r\n\r\n    }\r\n\r\n    // For contract owner to forcefully remove Regulators\r\n    function removeRegulator(address toRemove) public ownerOnly {\r\n        dataStorage.removeRegulator(toRemove);\r\n    }\r\n\r\n    // getter functions\r\n\r\n    // check if an address is an authorised regulator\r\n    function isAuthorised(address _address) public view returns(bool) {\r\n        return dataStorage.isAuthorisedRegulator(_address);\r\n    }\r\n\r\n}",
  "sourcePath": "C:\\Users\\Daniel\\Desktop\\IS4302-CarbonCoin\\contracts\\Regulator.sol",
  "compiler": {
    "name": "solc",
    "version": "0.5.0+commit.1d4f565a.Emscripten.clang"
  },
  "schemaVersion": "3.4.4",
  "updatedAt": "2022-04-05T08:18:48.726Z",
  "devdoc": {
    "methods": {}
  },
  "userdoc": {
    "methods": {}
  }
}