{
  "contractName": "Regulator",
  "abi": [
    {
      "inputs": [],
      "payable": false,
      "stateMutability": "nonpayable",
      "type": "constructor"
    },
    {
      "constant": false,
      "inputs": [
        {
          "name": "_address",
          "type": "address"
        }
      ],
      "name": "setUserDataStorageAddress",
      "outputs": [],
      "payable": false,
      "stateMutability": "nonpayable",
      "type": "function"
    },
    {
      "constant": false,
      "inputs": [
        {
          "name": "name",
          "type": "string"
        }
      ],
      "name": "requestApproval",
      "outputs": [],
      "payable": false,
      "stateMutability": "nonpayable",
      "type": "function"
    },
    {
      "constant": false,
      "inputs": [
        {
          "name": "toApprove",
          "type": "address"
        }
      ],
      "name": "approveRegulator",
      "outputs": [],
      "payable": false,
      "stateMutability": "nonpayable",
      "type": "function"
    },
    {
      "constant": false,
      "inputs": [
        {
          "name": "toReject",
          "type": "address"
        }
      ],
      "name": "rejectRegulator",
      "outputs": [],
      "payable": false,
      "stateMutability": "nonpayable",
      "type": "function"
    },
    {
      "constant": false,
      "inputs": [
        {
          "name": "toRemove",
          "type": "address"
        }
      ],
      "name": "removeRegulator",
      "outputs": [],
      "payable": false,
      "stateMutability": "nonpayable",
      "type": "function"
    },
    {
      "constant": true,
      "inputs": [],
      "name": "getApprovalQueue",
      "outputs": [
        {
          "name": "",
          "type": "address[]"
        }
      ],
      "payable": false,
      "stateMutability": "view",
      "type": "function"
    },
    {
      "constant": true,
      "inputs": [
        {
          "name": "regulator",
          "type": "address"
        }
      ],
      "name": "isAuthorised",
      "outputs": [
        {
          "name": "",
          "type": "bool"
        }
      ],
      "payable": false,
      "stateMutability": "view",
      "type": "function"
    }
  ],
  "bytecode": "0x608060405234801561001057600080fd5b50336000806101000a81548173ffffffffffffffffffffffffffffffffffffffff021916908373ffffffffffffffffffffffffffffffffffffffff160217905550610f8e806100606000396000f3fe608060405260043610610083576000357c0100000000000000000000000000000000000000000000000000000000900463ffffffff168063379f5fed1461008857806351b699cd146100d9578063967615951461014257806399ada65c1461020a578063a14a195b14610276578063f3730688146102c7578063fbc9cbde14610318575b600080fd5b34801561009457600080fd5b506100d7600480360360208110156100ab57600080fd5b81019080803573ffffffffffffffffffffffffffffffffffffffff169060200190929190505050610369565b005b3480156100e557600080fd5b50610128600480360360208110156100fc57600080fd5b81019080803573ffffffffffffffffffffffffffffffffffffffff169060200190929190505050610531565b604051808215151515815260200191505060405180910390f35b34801561014e57600080fd5b506102086004803603602081101561016557600080fd5b810190808035906020019064010000000081111561018257600080fd5b82018360208201111561019457600080fd5b803590602001918460018302840111640100000000831117156101b657600080fd5b91908080601f016020809104026020016040519081016040528093929190818152602001838380828437600081840152601f19601f82011690508083019250505050505050919291929050505061063b565b005b34801561021657600080fd5b5061021f6109e8565b6040518080602001828103825283818151815260200191508051906020019060200280838360005b83811015610262578082015181840152602081019050610247565b505050509050019250505060405180910390f35b34801561028257600080fd5b506102c56004803603602081101561029957600080fd5b81019080803573ffffffffffffffffffffffffffffffffffffffff169060200190929190505050610a76565b005b3480156102d357600080fd5b50610316600480360360208110156102ea57600080fd5b81019080803573ffffffffffffffffffffffffffffffffffffffff169060200190929190505050610cf0565b005b34801561032457600080fd5b506103676004803603602081101561033b57600080fd5b81019080803573ffffffffffffffffffffffffffffffffffffffff169060200190929190505050610d34565b005b6000809054906101000a900473ffffffffffffffffffffffffffffffffffffffff1673ffffffffffffffffffffffffffffffffffffffff163373ffffffffffffffffffffffffffffffffffffffff16141515610453576040517f08c379a00000000000000000000000000000000000000000000000000000000081526004018080602001828103825260268152602001807f4f6e6c79206f776e657220697320616c6c6f77656420746f20617070726f766581526020017f20746869732e000000000000000000000000000000000000000000000000000081525060400191505060405180910390fd5b6000600360009054906101000a900473ffffffffffffffffffffffffffffffffffffffff1690508073ffffffffffffffffffffffffffffffffffffffff1663379f5fed836040518263ffffffff167c0100000000000000000000000000000000000000000000000000000000028152600401808273ffffffffffffffffffffffffffffffffffffffff1673ffffffffffffffffffffffffffffffffffffffff168152602001915050600060405180830381600087803b15801561051557600080fd5b505af1158015610529573d6000803e3d6000fd5b505050505050565b600080600360009054906101000a900473ffffffffffffffffffffffffffffffffffffffff16905060008173ffffffffffffffffffffffffffffffffffffffff166361bb1c46856040518263ffffffff167c0100000000000000000000000000000000000000000000000000000000028152600401808273ffffffffffffffffffffffffffffffffffffffff1673ffffffffffffffffffffffffffffffffffffffff16815260200191505060206040518083038186803b1580156105f457600080fd5b505afa158015610608573d6000803e3d6000fd5b505050506040513d602081101561061e57600080fd5b810190808051906020019092919050505090508092505050919050565b6000600160003373ffffffffffffffffffffffffffffffffffffffff1673ffffffffffffffffffffffffffffffffffffffff168152602001908152602001600020541415156106f2576040517f08c379a000000000000000000000000000000000000000000000000000000000815260040180806020018281038252601e8152602001807f416c726561647920696e20717565756520666f7220417070726f76616c21000081525060200191505060405180910390fd5b6000600360009054906101000a900473ffffffffffffffffffffffffffffffffffffffff1690508073ffffffffffffffffffffffffffffffffffffffff1663270ab055833360006040518463ffffffff167c010000000000000000000000000000000000000000000000000000000002815260040180806020018473ffffffffffffffffffffffffffffffffffffffff1673ffffffffffffffffffffffffffffffffffffffff16815260200183151515158152602001828103825285818151815260200191508051906020019080838360005b838110156107e05780820151818401526020810190506107c5565b50505050905090810190601f16801561080d5780820380516001836020036101000a031916815260200191505b50945050505050600060405180830381600087803b15801561082e57600080fd5b505af1158015610842573d6000803e3d6000fd5b50505050600060045414156109055760053390806001815401808255809150509060018203906000526020600020016000909192909190916101000a81548173ffffffffffffffffffffffffffffffffffffffff021916908373ffffffffffffffffffffffffffffffffffffffff16021790555050600580549050600160003373ffffffffffffffffffffffffffffffffffffffff1673ffffffffffffffffffffffffffffffffffffffff168152602001908152602001600020819055506109e4565b33600560016004540381548110151561091a57fe5b9060005260206000200160006101000a81548173ffffffffffffffffffffffffffffffffffffffff021916908373ffffffffffffffffffffffffffffffffffffffff160217905550600454600160003373ffffffffffffffffffffffffffffffffffffffff1673ffffffffffffffffffffffffffffffffffffffff1681526020019081526020016000208190555060006002600060045481526020019081526020016000205490506002600060045481526020019081526020016000206000905580600481905550505b5050565b60606005805480602002602001604051908101604052809291908181526020018280548015610a6c57602002820191906000526020600020905b8160009054906101000a900473ffffffffffffffffffffffffffffffffffffffff1673ffffffffffffffffffffffffffffffffffffffff1681526020019060010190808311610a22575b5050505050905090565b6000809054906101000a900473ffffffffffffffffffffffffffffffffffffffff1673ffffffffffffffffffffffffffffffffffffffff163373ffffffffffffffffffffffffffffffffffffffff16141515610b60576040517f08c379a00000000000000000000000000000000000000000000000000000000081526004018080602001828103825260268152602001807f4f6e6c79206f776e657220697320616c6c6f77656420746f20617070726f766581526020017f20746869732e000000000000000000000000000000000000000000000000000081525060400191505060405180910390fd5b6000600360009054906101000a900473ffffffffffffffffffffffffffffffffffffffff1690508073ffffffffffffffffffffffffffffffffffffffff16638c4565f38360016040518363ffffffff167c0100000000000000000000000000000000000000000000000000000000028152600401808373ffffffffffffffffffffffffffffffffffffffff1673ffffffffffffffffffffffffffffffffffffffff1681526020018215151515815260200192505050600060405180830381600087803b158015610c2f57600080fd5b505af1158015610c43573d6000803e3d6000fd5b505050506000600160008473ffffffffffffffffffffffffffffffffffffffff1673ffffffffffffffffffffffffffffffffffffffff168152602001908152602001600020549050600560018203815481101515610c9d57fe5b9060005260206000200160006101000a81549073ffffffffffffffffffffffffffffffffffffffff0219169055600454600260008381526020019081526020016000208190555080600481905550505050565b80600360006101000a81548173ffffffffffffffffffffffffffffffffffffffff021916908373ffffffffffffffffffffffffffffffffffffffff16021790555050565b6000809054906101000a900473ffffffffffffffffffffffffffffffffffffffff1673ffffffffffffffffffffffffffffffffffffffff163373ffffffffffffffffffffffffffffffffffffffff16141515610e1e576040517f08c379a00000000000000000000000000000000000000000000000000000000081526004018080602001828103825260268152602001807f4f6e6c79206f776e657220697320616c6c6f77656420746f20617070726f766581526020017f20746869732e000000000000000000000000000000000000000000000000000081525060400191505060405180910390fd5b6000600360009054906101000a900473ffffffffffffffffffffffffffffffffffffffff1690508073ffffffffffffffffffffffffffffffffffffffff1663379f5fed836040518263ffffffff167c0100000000000000000000000000000000000000000000000000000000028152600401808273ffffffffffffffffffffffffffffffffffffffff1673ffffffffffffffffffffffffffffffffffffffff168152602001915050600060405180830381600087803b158015610ee057600080fd5b505af1158015610ef4573d6000803e3d6000fd5b505050506000600160008473ffffffffffffffffffffffffffffffffffffffff1673ffffffffffffffffffffffffffffffffffffffff16815260200190815260200160002054905060045460026000838152602001908152602001600020819055508060048190555050505056fea165627a7a72305820c300b7e2ee3e06d76021fc174016447d764297072f460f9cca83d665c4c5d3880029",
  "source": "pragma solidity ^0.5.0;\r\n\r\nimport \"./UserDataStorage.sol\";\r\n\r\ncontract Regulator {\r\n    address owner;\r\n\r\n    struct RegulatorInformation {\r\n        string name;\r\n        bool authorised;\r\n    }\r\n\r\n    //mapping(address => RegulatorInformation) approved;\r\n    mapping(address => uint256) queueNumber;\r\n    mapping(uint256 => uint256) freeQueueNumbers;\r\n    address userDataStorageAddress;\r\n    uint256 nextQueueNumber;\r\n    address[] approvalQueue;\r\n\r\n    constructor() public {\r\n        owner = msg.sender;\r\n        }\r\n\r\n    // testing functions just ignore\r\n\r\n\r\n    //\r\n\r\n    modifier onlyOwner() {\r\n        require(msg.sender == owner, \"Only owner is allowed to approve this.\");\r\n        _;\r\n    }\r\n\r\n    function setUserDataStorageAddress(address _address) public {\r\n        userDataStorageAddress = _address;\r\n    }\r\n\r\n    function requestApproval(string memory name) public {\r\n        require(queueNumber[msg.sender] == 0, 'Already in queue for Approval!');\r\n        UserDataStorage u = UserDataStorage(userDataStorageAddress);\r\n        u.addRegulator(name, msg.sender, false);\r\n        //approved[msg.sender] = RegulatorInformation({ name: name, authorised: false });\r\n\r\n        if (nextQueueNumber == 0) {\r\n            approvalQueue.push(msg.sender);\r\n            queueNumber[msg.sender] = approvalQueue.length;\r\n        } else {\r\n            approvalQueue[nextQueueNumber - 1] = msg.sender;\r\n            queueNumber[msg.sender] = nextQueueNumber;\r\n            uint256 next = freeQueueNumbers[nextQueueNumber];\r\n            delete freeQueueNumbers[nextQueueNumber];\r\n            nextQueueNumber = next;\r\n        }\r\n    }\r\n\r\n    function approveRegulator(address toApprove) public onlyOwner {\r\n        //approved[toApprove].authorised = true;\r\n        UserDataStorage u = UserDataStorage(userDataStorageAddress);\r\n        u.updateRegulatorAuthorisation(toApprove, true);\r\n        uint256 currentQueueNumber = queueNumber[toApprove];\r\n        delete approvalQueue[currentQueueNumber - 1];\r\n        freeQueueNumbers[currentQueueNumber] = nextQueueNumber;\r\n        nextQueueNumber = currentQueueNumber;\r\n    }\r\n\r\n    function rejectRegulator(address toReject) public onlyOwner {\r\n        //delete approved[toReject];\r\n        UserDataStorage u = UserDataStorage(userDataStorageAddress);\r\n        u.removeRegulator(toReject);\r\n        uint256 openedSlot = queueNumber[toReject];\r\n        freeQueueNumbers[openedSlot] = nextQueueNumber;\r\n        nextQueueNumber = openedSlot;\r\n    }\r\n\r\n    function removeRegulator(address toRemove) public onlyOwner {\r\n        //delete approved[toRemove];\r\n        UserDataStorage u = UserDataStorage(userDataStorageAddress);\r\n        u.removeRegulator(toRemove);\r\n    }\r\n\r\n    function getApprovalQueue() public view returns(address[] memory) {\r\n        return approvalQueue;\r\n    }\r\n    // getter functions\r\n    function isAuthorised(address regulator) public view returns(bool) {\r\n        UserDataStorage u = UserDataStorage(userDataStorageAddress);\r\n        bool authorised = u.getRegulatorAuthorisation(regulator);\r\n        return authorised;\r\n    }\r\n\r\n}",
  "sourcePath": "C:\\Users\\Daniel\\Desktop\\IS4302-CarbonCoin\\contracts\\Regulator.sol",
  "compiler": {
    "name": "solc",
    "version": "0.5.0+commit.1d4f565a.Emscripten.clang"
  },
  "schemaVersion": "3.4.4",
  "updatedAt": "2022-03-26T06:03:43.246Z",
  "networkType": "ethereum",
  "devdoc": {
    "methods": {}
  },
  "userdoc": {
    "methods": {}
  }
}