{
  "contractName": "TransactionData",
  "abi": [
    {
      "inputs": [],
      "payable": false,
      "stateMutability": "nonpayable",
      "type": "constructor"
    },
    {
      "anonymous": false,
      "inputs": [
        {
          "indexed": false,
          "name": "",
          "type": "address"
        }
      ],
      "name": "CarbonExchangeAddressSet",
      "type": "event"
    },
    {
      "constant": false,
      "inputs": [
        {
          "name": "_address",
          "type": "address"
        }
      ],
      "name": "setCarbonExchangeAddress",
      "outputs": [],
      "payable": false,
      "stateMutability": "nonpayable",
      "type": "function"
    },
    {
      "constant": false,
      "inputs": [
        {
          "name": "account",
          "type": "address"
        },
        {
          "name": "amount",
          "type": "int256"
        },
        {
          "name": "price",
          "type": "uint256"
        }
      ],
      "name": "addTransaction",
      "outputs": [],
      "payable": false,
      "stateMutability": "nonpayable",
      "type": "function"
    }
  ],
  "bytecode": "0x608060405234801561001057600080fd5b50336000806101000a81548173ffffffffffffffffffffffffffffffffffffffff021916908373ffffffffffffffffffffffffffffffffffffffff160217905550610425806100606000396000f3fe60806040526004361061004c576000357c0100000000000000000000000000000000000000000000000000000000900463ffffffff1680632fe116751461005157806343e93c40146100b6575b600080fd5b34801561005d57600080fd5b506100b46004803603606081101561007457600080fd5b81019080803573ffffffffffffffffffffffffffffffffffffffff1690602001909291908035906020019092919080359060200190929190505050610107565b005b3480156100c257600080fd5b50610105600480360360208110156100d957600080fd5b81019080803573ffffffffffffffffffffffffffffffffffffffff16906020019092919050505061028e565b005b600160009054906101000a900473ffffffffffffffffffffffffffffffffffffffff1673ffffffffffffffffffffffffffffffffffffffff163373ffffffffffffffffffffffffffffffffffffffff161415156101cc576040517f08c379a00000000000000000000000000000000000000000000000000000000081526004018080602001828103825260178152602001807f4e6f7420617574686f726973656420616464726573732100000000000000000081525060200191505060405180910390fd5b60026060604051908101604052808573ffffffffffffffffffffffffffffffffffffffff168152602001848152602001838152509080600181540180825580915050906001820390600052602060002090600302016000909192909190915060008201518160000160006101000a81548173ffffffffffffffffffffffffffffffffffffffff021916908373ffffffffffffffffffffffffffffffffffffffff1602179055506020820151816001015560408201518160020155505050505050565b6000809054906101000a900473ffffffffffffffffffffffffffffffffffffffff1673ffffffffffffffffffffffffffffffffffffffff163373ffffffffffffffffffffffffffffffffffffffff16141515610352576040517f08c379a00000000000000000000000000000000000000000000000000000000081526004018080602001828103825260168152602001807f4e6f74206f776e6572206f6620636f6e7472616374210000000000000000000081525060200191505060405180910390fd5b80600160006101000a81548173ffffffffffffffffffffffffffffffffffffffff021916908373ffffffffffffffffffffffffffffffffffffffff1602179055507f314575971267369fa3611d5f4f43539c1b7461c57ab983497ba5e1e8d93b93e981604051808273ffffffffffffffffffffffffffffffffffffffff1673ffffffffffffffffffffffffffffffffffffffff16815260200191505060405180910390a15056fea165627a7a72305820dc13b280a0bbbf27fa57c16d7df95d8b18dbb101d36ab321d947fe7f65bd20d60029",
  "source": "pragma solidity ^0.5.0;\r\n\r\nimport './Company.sol';\r\n\r\ncontract TransactionData {\r\n    \r\n    address owner;\r\n\r\n    struct Transaction {\r\n        address account;\r\n        int256 amount;\r\n        uint256 price;\r\n    }\r\n\r\n    address carbonExchange;\r\n\r\n    Transaction[] data;\r\n\r\n    event CarbonExchangeAddressSet(address);\r\n\r\n    constructor() public {\r\n        owner = msg.sender;\r\n    }\r\n\r\n    // ------ modifiers ------\r\n\r\n    modifier ownerOnly() {\r\n        require(msg.sender == owner, 'Not owner of contract!');\r\n        _;\r\n    }\r\n\r\n    modifier carbonExchangeContractOnly() {\r\n        require(msg.sender == carbonExchange, 'Not authorised address!');\r\n        _;\r\n    }\r\n\r\n    // ------ class functions ------\r\n    \r\n    function setCarbonExchangeAddress(address _address) public ownerOnly {\r\n        carbonExchange = _address;\r\n        emit CarbonExchangeAddressSet(_address);\r\n    }\r\n\r\n    function addTransaction(address account, int256 amount, uint256 price) public carbonExchangeContractOnly {\r\n        data.push(Transaction({ account: account, amount: amount, price: price}));\r\n    }\r\n    \r\n}",
  "sourcePath": "C:\\Users\\Daniel\\Desktop\\IS4302-CarbonCoin\\contracts\\TransactionData.sol",
  "compiler": {
    "name": "solc",
    "version": "0.5.0+commit.1d4f565a.Emscripten.clang"
  },
  "schemaVersion": "3.4.4",
  "updatedAt": "2022-04-09T16:39:44.685Z",
  "devdoc": {
    "methods": {}
  },
  "userdoc": {
    "methods": {}
  }
}