{
  "contractName": "UserDataStorage",
  "abi": [
    {
      "constant": true,
      "inputs": [
        {
          "name": "",
          "type": "address"
        }
      ],
      "name": "companies",
      "outputs": [
        {
          "name": "name",
          "type": "string"
        },
        {
          "name": "approvedBy",
          "type": "address"
        }
      ],
      "payable": false,
      "stateMutability": "view",
      "type": "function"
    },
    {
      "inputs": [],
      "payable": false,
      "stateMutability": "nonpayable",
      "type": "constructor"
    },
    {
      "anonymous": false,
      "inputs": [
        {
          "indexed": false,
          "name": "",
          "type": "address"
        }
      ],
      "name": "CompanyAddressSet",
      "type": "event"
    },
    {
      "anonymous": false,
      "inputs": [
        {
          "indexed": false,
          "name": "",
          "type": "address"
        }
      ],
      "name": "RegulatorAddressSet",
      "type": "event"
    },
    {
      "constant": false,
      "inputs": [
        {
          "name": "_address",
          "type": "address"
        }
      ],
      "name": "setCompanyContract",
      "outputs": [],
      "payable": false,
      "stateMutability": "nonpayable",
      "type": "function"
    },
    {
      "constant": false,
      "inputs": [
        {
          "name": "_address",
          "type": "address"
        }
      ],
      "name": "setRegulatorContract",
      "outputs": [],
      "payable": false,
      "stateMutability": "nonpayable",
      "type": "function"
    },
    {
      "constant": false,
      "inputs": [
        {
          "name": "name",
          "type": "string"
        },
        {
          "name": "country",
          "type": "string"
        },
        {
          "name": "_address",
          "type": "address"
        }
      ],
      "name": "addRegulator",
      "outputs": [],
      "payable": false,
      "stateMutability": "nonpayable",
      "type": "function"
    },
    {
      "constant": false,
      "inputs": [
        {
          "name": "_address",
          "type": "address"
        }
      ],
      "name": "removeRegulator",
      "outputs": [],
      "payable": false,
      "stateMutability": "nonpayable",
      "type": "function"
    },
    {
      "constant": true,
      "inputs": [
        {
          "name": "_address",
          "type": "address"
        }
      ],
      "name": "isApprovedRegulator",
      "outputs": [
        {
          "name": "",
          "type": "bool"
        }
      ],
      "payable": false,
      "stateMutability": "view",
      "type": "function"
    },
    {
      "constant": false,
      "inputs": [
        {
          "name": "name",
          "type": "string"
        },
        {
          "name": "company",
          "type": "address"
        },
        {
          "name": "approvedBy",
          "type": "address"
        }
      ],
      "name": "addCompany",
      "outputs": [],
      "payable": false,
      "stateMutability": "nonpayable",
      "type": "function"
    },
    {
      "constant": false,
      "inputs": [
        {
          "name": "company",
          "type": "address"
        }
      ],
      "name": "removeCompany",
      "outputs": [],
      "payable": false,
      "stateMutability": "nonpayable",
      "type": "function"
    },
    {
      "constant": false,
      "inputs": [
        {
          "name": "company",
          "type": "address"
        },
        {
          "name": "year",
          "type": "uint256"
        },
        {
          "name": "emissions",
          "type": "uint256"
        }
      ],
      "name": "updateCompanyEmissions",
      "outputs": [],
      "payable": false,
      "stateMutability": "nonpayable",
      "type": "function"
    },
    {
      "constant": false,
      "inputs": [
        {
          "name": "company",
          "type": "address"
        },
        {
          "name": "year",
          "type": "uint256"
        },
        {
          "name": "limit",
          "type": "uint256"
        }
      ],
      "name": "updateCompanyLimits",
      "outputs": [],
      "payable": false,
      "stateMutability": "nonpayable",
      "type": "function"
    },
    {
      "constant": true,
      "inputs": [
        {
          "name": "_address",
          "type": "address"
        }
      ],
      "name": "isApprovedCompany",
      "outputs": [
        {
          "name": "",
          "type": "bool"
        }
      ],
      "payable": false,
      "stateMutability": "view",
      "type": "function"
    },
    {
      "constant": true,
      "inputs": [
        {
          "name": "_address",
          "type": "address"
        },
        {
          "name": "year",
          "type": "uint256"
        }
      ],
      "name": "getEmissions",
      "outputs": [
        {
          "name": "",
          "type": "uint256"
        }
      ],
      "payable": false,
      "stateMutability": "view",
      "type": "function"
    },
    {
      "constant": true,
      "inputs": [
        {
          "name": "_address",
          "type": "address"
        },
        {
          "name": "year",
          "type": "uint256"
        }
      ],
      "name": "getLimit",
      "outputs": [
        {
          "name": "",
          "type": "uint256"
        }
      ],
      "payable": false,
      "stateMutability": "view",
      "type": "function"
    }
  ],
  "bytecode": "0x608060405234801561001057600080fd5b50336000806101000a81548173ffffffffffffffffffffffffffffffffffffffff021916908373ffffffffffffffffffffffffffffffffffffffff160217905550611ac2806100606000396000f3fe6080604052600436106100c5576000357c0100000000000000000000000000000000000000000000000000000000900463ffffffff16806320ee2dcc146100ca57806322043ee01461011b57806326d03f22146101805780632b84f72a146101e5578063337cfb7814610254578063355e6ce8146103d3578063379f5fed146104d05780633b922b9a14610521578063656b450814610590578063782ef2c5146105e1578063b63585111461064a578063b67d4e1314610752578063b7ce37f6146107a3575b600080fd5b3480156100d657600080fd5b50610119600480360360208110156100ed57600080fd5b81019080803573ffffffffffffffffffffffffffffffffffffffff16906020019092919050505061080c565b005b34801561012757600080fd5b5061017e6004803603606081101561013e57600080fd5b81019080803573ffffffffffffffffffffffffffffffffffffffff1690602001909291908035906020019092919080359060200190929190505050610a42565b005b34801561018c57600080fd5b506101e3600480360360608110156101a357600080fd5b81019080803573ffffffffffffffffffffffffffffffffffffffff1690602001909291908035906020019092919080359060200190929190505050610c59565b005b3480156101f157600080fd5b5061023e6004803603604081101561020857600080fd5b81019080803573ffffffffffffffffffffffffffffffffffffffff16906020019092919080359060200190929190505050610e70565b6040518082815260200191505060405180910390f35b34801561026057600080fd5b506103d16004803603606081101561027757600080fd5b810190808035906020019064010000000081111561029457600080fd5b8201836020820111156102a657600080fd5b803590602001918460018302840111640100000000831117156102c857600080fd5b91908080601f016020809104026020016040519081016040528093929190818152602001838380828437600081840152601f19601f8201169050808301925050505050505091929192908035906020019064010000000081111561032b57600080fd5b82018360208201111561033d57600080fd5b8035906020019184600183028401116401000000008311171561035f57600080fd5b91908080601f016020809104026020016040519081016040528093929190818152602001838380828437600081840152601f19601f820116905080830192505050505050509192919290803573ffffffffffffffffffffffffffffffffffffffff169060200190929190505050610ece565b005b3480156103df57600080fd5b50610422600480360360208110156103f657600080fd5b81019080803573ffffffffffffffffffffffffffffffffffffffff1690602001909291905050506110f7565b60405180806020018373ffffffffffffffffffffffffffffffffffffffff1673ffffffffffffffffffffffffffffffffffffffff168152602001828103825284818151815260200191508051906020019080838360005b83811015610494578082015181840152602081019050610479565b50505050905090810190601f1680156104c15780820380516001836020036101000a031916815260200191505b50935050505060405180910390f35b3480156104dc57600080fd5b5061051f600480360360208110156104f357600080fd5b81019080803573ffffffffffffffffffffffffffffffffffffffff1690602001909291905050506111d3565b005b34801561052d57600080fd5b5061057a6004803603604081101561054457600080fd5b81019080803573ffffffffffffffffffffffffffffffffffffffff169060200190929190803590602001909291905050506113f2565b6040518082815260200191505060405180910390f35b34801561059c57600080fd5b506105df600480360360208110156105b357600080fd5b81019080803573ffffffffffffffffffffffffffffffffffffffff169060200190929190505050611450565b005b3480156105ed57600080fd5b506106306004803603602081101561060457600080fd5b81019080803573ffffffffffffffffffffffffffffffffffffffff169060200190929190505050611552565b604051808215151515815260200191505060405180910390f35b34801561065657600080fd5b506107506004803603606081101561066d57600080fd5b810190808035906020019064010000000081111561068a57600080fd5b82018360208201111561069c57600080fd5b803590602001918460018302840111640100000000831117156106be57600080fd5b91908080601f016020809104026020016040519081016040528093929190818152602001838380828437600081840152601f19601f820116905080830192505050505050509192919290803573ffffffffffffffffffffffffffffffffffffffff169060200190929190803573ffffffffffffffffffffffffffffffffffffffff1690602001909291905050506115b5565b005b34801561075e57600080fd5b506107a16004803603602081101561077557600080fd5b81019080803573ffffffffffffffffffffffffffffffffffffffff169060200190929190505050611844565b005b3480156107af57600080fd5b506107f2600480360360208110156107c657600080fd5b81019080803573ffffffffffffffffffffffffffffffffffffffff169060200190929190505050611946565b604051808215151515815260200191505060405180910390f35b600260009054906101000a900473ffffffffffffffffffffffffffffffffffffffff1673ffffffffffffffffffffffffffffffffffffffff163373ffffffffffffffffffffffffffffffffffffffff161415156108d1576040517f08c379a00000000000000000000000000000000000000000000000000000000081526004018080602001828103825260148152602001807f556e6174686f726973656420616464726573732100000000000000000000000081525060200191505060405180910390fd5b6000600460008373ffffffffffffffffffffffffffffffffffffffff1673ffffffffffffffffffffffffffffffffffffffff168152602001908152602001600020600001805460018160011615610100020316600290049050141515156109c6576040517f08c379a00000000000000000000000000000000000000000000000000000000081526004018080602001828103825260238152602001807f41646472657373206973206e6f7420616e20617070726f76656420636f6d706181526020017f6e7921000000000000000000000000000000000000000000000000000000000081525060400191505060405180910390fd5b600460008273ffffffffffffffffffffffffffffffffffffffff1673ffffffffffffffffffffffffffffffffffffffff16815260200190815260200160002060008082016000610a1691906119a9565b6001820160006101000a81549073ffffffffffffffffffffffffffffffffffffffff0219169055505050565b600260009054906101000a900473ffffffffffffffffffffffffffffffffffffffff1673ffffffffffffffffffffffffffffffffffffffff163373ffffffffffffffffffffffffffffffffffffffff16141515610b07576040517f08c379a00000000000000000000000000000000000000000000000000000000081526004018080602001828103825260148152602001807f556e6174686f726973656420616464726573732100000000000000000000000081525060200191505060405180910390fd5b6000600460008573ffffffffffffffffffffffffffffffffffffffff1673ffffffffffffffffffffffffffffffffffffffff16815260200190815260200160002060000180546001816001161561010002031660029004905014151515610bfc576040517f08c379a00000000000000000000000000000000000000000000000000000000081526004018080602001828103825260238152602001807f41646472657373206973206e6f7420616e20617070726f76656420636f6d706181526020017f6e7921000000000000000000000000000000000000000000000000000000000081525060400191505060405180910390fd5b80600460008573ffffffffffffffffffffffffffffffffffffffff1673ffffffffffffffffffffffffffffffffffffffff168152602001908152602001600020600301600084815260200190815260200160002081905550505050565b600260009054906101000a900473ffffffffffffffffffffffffffffffffffffffff1673ffffffffffffffffffffffffffffffffffffffff163373ffffffffffffffffffffffffffffffffffffffff16141515610d1e576040517f08c379a00000000000000000000000000000000000000000000000000000000081526004018080602001828103825260148152602001807f556e6174686f726973656420616464726573732100000000000000000000000081525060200191505060405180910390fd5b6000600460008573ffffffffffffffffffffffffffffffffffffffff1673ffffffffffffffffffffffffffffffffffffffff16815260200190815260200160002060000180546001816001161561010002031660029004905014151515610e13576040517f08c379a00000000000000000000000000000000000000000000000000000000081526004018080602001828103825260238152602001807f41646472657373206973206e6f7420616e20617070726f76656420636f6d706181526020017f6e7921000000000000000000000000000000000000000000000000000000000081525060400191505060405180910390fd5b80600460008573ffffffffffffffffffffffffffffffffffffffff1673ffffffffffffffffffffffffffffffffffffffff168152602001908152602001600020600201600084815260200190815260200160002081905550505050565b6000600460008473ffffffffffffffffffffffffffffffffffffffff1673ffffffffffffffffffffffffffffffffffffffff168152602001908152602001600020600301600083815260200190815260200160002054905092915050565b600160009054906101000a900473ffffffffffffffffffffffffffffffffffffffff1673ffffffffffffffffffffffffffffffffffffffff163373ffffffffffffffffffffffffffffffffffffffff16141515610f93576040517f08c379a00000000000000000000000000000000000000000000000000000000081526004018080602001828103825260158152602001807f556e617574686f7269736564206164647265737321000000000000000000000081525060200191505060405180910390fd5b6000600360008373ffffffffffffffffffffffffffffffffffffffff1673ffffffffffffffffffffffffffffffffffffffff168152602001908152602001600020600001805460018160011615610100020316600290049050141515611061576040517f08c379a00000000000000000000000000000000000000000000000000000000081526004018080602001828103825260208152602001807f526567756c61746f7220697320616c726561647920617574686f72697365642181525060200191505060405180910390fd5b604080519081016040528084815260200183815250600360008373ffffffffffffffffffffffffffffffffffffffff1673ffffffffffffffffffffffffffffffffffffffff16815260200190815260200160002060008201518160000190805190602001906110d19291906119f1565b5060208201518160010190805190602001906110ee9291906119f1565b50905050505050565b6004602052806000526040600020600091509050806000018054600181600116156101000203166002900480601f0160208091040260200160405190810160405280929190818152602001828054600181600116156101000203166002900480156111a35780601f10611178576101008083540402835291602001916111a3565b820191906000526020600020905b81548152906001019060200180831161118657829003601f168201915b5050505050908060010160009054906101000a900473ffffffffffffffffffffffffffffffffffffffff16905082565b600160009054906101000a900473ffffffffffffffffffffffffffffffffffffffff1673ffffffffffffffffffffffffffffffffffffffff163373ffffffffffffffffffffffffffffffffffffffff16141515611298576040517f08c379a00000000000000000000000000000000000000000000000000000000081526004018080602001828103825260158152602001807f556e617574686f7269736564206164647265737321000000000000000000000081525060200191505060405180910390fd5b6000600360008373ffffffffffffffffffffffffffffffffffffffff1673ffffffffffffffffffffffffffffffffffffffff1681526020019081526020016000206000018054600181600116156101000203166002900490501415151561138d576040517f08c379a00000000000000000000000000000000000000000000000000000000081526004018080602001828103825260278152602001807f41646472657373206973206e6f7420616e20617574686f72697365642072656781526020017f756c61746f72210000000000000000000000000000000000000000000000000081525060400191505060405180910390fd5b600360008273ffffffffffffffffffffffffffffffffffffffff1673ffffffffffffffffffffffffffffffffffffffff168152602001908152602001600020600080820160006113dd91906119a9565b6001820160006113ed91906119a9565b505050565b6000600460008473ffffffffffffffffffffffffffffffffffffffff1673ffffffffffffffffffffffffffffffffffffffff168152602001908152602001600020600201600083815260200190815260200160002054905092915050565b6000809054906101000a900473ffffffffffffffffffffffffffffffffffffffff1673ffffffffffffffffffffffffffffffffffffffff163373ffffffffffffffffffffffffffffffffffffffff161415156114ab57600080fd5b80600160006101000a81548173ffffffffffffffffffffffffffffffffffffffff021916908373ffffffffffffffffffffffffffffffffffffffff1602179055507fc7ddf6962500008729938db5f3f3393e9443e7708546124c9ae209f12037f70881604051808273ffffffffffffffffffffffffffffffffffffffff1673ffffffffffffffffffffffffffffffffffffffff16815260200191505060405180910390a150565b600080600460008473ffffffffffffffffffffffffffffffffffffffff1673ffffffffffffffffffffffffffffffffffffffff16815260200190815260200160002060000180546001816001161561010002031660029004905014159050919050565b600260009054906101000a900473ffffffffffffffffffffffffffffffffffffffff1673ffffffffffffffffffffffffffffffffffffffff163373ffffffffffffffffffffffffffffffffffffffff1614151561167a576040517f08c379a00000000000000000000000000000000000000000000000000000000081526004018080602001828103825260148152602001807f556e6174686f726973656420616464726573732100000000000000000000000081525060200191505060405180910390fd5b6000600460008473ffffffffffffffffffffffffffffffffffffffff1673ffffffffffffffffffffffffffffffffffffffff16815260200190815260200160002060000180546001816001161561010002031660029004905014151561176e576040517f08c379a00000000000000000000000000000000000000000000000000000000081526004018080602001828103825260278152602001807f4164647265737320697320616c726561647920616e20617070726f766564204381526020017f6f6d70616e79210000000000000000000000000000000000000000000000000081525060400191505060405180910390fd5b60408051908101604052808481526020018273ffffffffffffffffffffffffffffffffffffffff16815250600460008473ffffffffffffffffffffffffffffffffffffffff1673ffffffffffffffffffffffffffffffffffffffff16815260200190815260200160002060008201518160000190805190602001906117f49291906119f1565b5060208201518160010160006101000a81548173ffffffffffffffffffffffffffffffffffffffff021916908373ffffffffffffffffffffffffffffffffffffffff160217905550905050505050565b6000809054906101000a900473ffffffffffffffffffffffffffffffffffffffff1673ffffffffffffffffffffffffffffffffffffffff163373ffffffffffffffffffffffffffffffffffffffff1614151561189f57600080fd5b80600260006101000a81548173ffffffffffffffffffffffffffffffffffffffff021916908373ffffffffffffffffffffffffffffffffffffffff1602179055507f1b056ba538e3b332bb0a0a954b9fd8ca950b3f3efc7b2fa179a0a60132e069b981604051808273ffffffffffffffffffffffffffffffffffffffff1673ffffffffffffffffffffffffffffffffffffffff16815260200191505060405180910390a150565b600080600360008473ffffffffffffffffffffffffffffffffffffffff1673ffffffffffffffffffffffffffffffffffffffff16815260200190815260200160002060000180546001816001161561010002031660029004905014159050919050565b50805460018160011615610100020316600290046000825580601f106119cf57506119ee565b601f0160209004906000526020600020908101906119ed9190611a71565b5b50565b828054600181600116156101000203166002900490600052602060002090601f016020900481019282601f10611a3257805160ff1916838001178555611a60565b82800160010185558215611a60579182015b82811115611a5f578251825591602001919060010190611a44565b5b509050611a6d9190611a71565b5090565b611a9391905b80821115611a8f576000816000905550600101611a77565b5090565b9056fea165627a7a723058204a93444802e2fb175f16927ad9356b360bd0d53a2749184f01f52c748b7e01830029",
  "source": "pragma solidity ^0.5.0;\r\n\r\n//Data segregation for company and regulator profiles \r\ncontract UserDataStorage {\r\n    \r\n    struct RegulatorInformation {\r\n        string name;\r\n        string country;\r\n    }\r\n\r\n    struct CompanyInformation {\r\n        string name;\r\n        address approvedBy;\r\n        // maps year to emissions\r\n        mapping(uint256 => uint256) emissions;\r\n        // maps year to limit\r\n        mapping(uint256 => uint256) limits;\r\n    }\r\n\r\n    address owner;\r\n    address regulatorContract;\r\n    address companyContract;\r\n\r\n    mapping(address => RegulatorInformation) regulators;\r\n    mapping(address => CompanyInformation) public companies;\r\n\r\n    // events\r\n    event CompanyAddressSet(address);\r\n    event RegulatorAddressSet(address);\r\n\r\n    constructor() public {\r\n        owner = msg.sender;\r\n    }\r\n\r\n    // modifiers\r\n    modifier ownerOnly() {\r\n        require(msg.sender == owner);\r\n        _;\r\n    }\r\n    \r\n    modifier approvedRegulatorContractOnly() {\r\n        require(msg.sender == regulatorContract, 'Unauthorised address!');\r\n        _;\r\n    }\r\n\r\n    modifier approvedCompanyContractOnly() {\r\n        require(msg.sender == companyContract, 'Unathorised address!');\r\n        _;\r\n    }\r\n\r\n    // setters\r\n\r\n    function setCompanyContract(address _address) public ownerOnly {\r\n        companyContract = _address;\r\n        emit CompanyAddressSet(_address);\r\n    }\r\n\r\n    function setRegulatorContract(address _address) public ownerOnly {\r\n        regulatorContract = _address;\r\n        emit RegulatorAddressSet(_address);\r\n    }\r\n\r\n    // ------ Regulator Functions ------\r\n\r\n    // add regulator to list of authorised regulators\r\n    function addRegulator(string memory name, string memory country, address _address) public approvedRegulatorContractOnly {\r\n        // ensure that regulator has not been authorised yet.\r\n        require(bytes(regulators[_address].name).length == 0, 'Regulator is already authorised!');\r\n        regulators[_address] = RegulatorInformation({name: name, country: country});\r\n    }\r\n\r\n    // remove regulators from list of authorised regulators\r\n    function removeRegulator(address _address) public approvedRegulatorContractOnly {\r\n        // Ensure that regulator is authorised.\r\n        require(bytes(regulators[_address].name).length != 0, 'Address is not an authorised regulator!');\r\n\r\n        delete regulators[_address];\r\n    }\r\n\r\n    // Getter functions\r\n\r\n    // true if regulator is approved\r\n    function isApprovedRegulator(address _address) public view returns(bool) {\r\n        return bytes(regulators[_address].name).length != 0;\r\n    }\r\n\r\n\r\n    // ------ Company functions ------\r\n\r\n    // to add company to approved company list\r\n    function addCompany(string memory name, address company, address approvedBy) public approvedCompanyContractOnly {\r\n        //ensure that address is not already an approved company\r\n        require(bytes(companies[company].name).length == 0, 'Address is already an approved Company!');\r\n        companies[company] = CompanyInformation({name: name, approvedBy: approvedBy});\r\n    }\r\n\r\n    // to remove company from approved company list\r\n    function removeCompany(address company) public approvedCompanyContractOnly {\r\n        // ensure that address is an approved company\r\n        require(bytes(companies[company].name).length != 0, 'Address is not an approved company!');\r\n\r\n        delete companies[company];\r\n    }\r\n\r\n    // To update campany carbon emissions for the year\r\n    function updateCompanyEmissions(address company, uint256 year, uint256 emissions) public approvedCompanyContractOnly {\r\n        // ensure that address is an approved company\r\n        require(bytes(companies[company].name).length != 0, 'Address is not an approved company!');\r\n\r\n        companies[company].emissions[year] = emissions;\r\n    }\r\n\r\n    function updateCompanyLimits(address company, uint256 year, uint256 limit) public approvedCompanyContractOnly {\r\n        require(bytes(companies[company].name).length != 0, 'Address is not an approved company!');\r\n\r\n        companies[company].limits[year] = limit;\r\n    }\r\n    // Getter functions\r\n\r\n    // true if company is approved\r\n    function isApprovedCompany(address _address) public view returns(bool) {\r\n        return bytes(companies[_address].name).length != 0;\r\n    }\r\n\r\n    // returns emission in specified year by company address.\r\n    function getEmissions(address _address, uint256 year) public view returns (uint256) {\r\n        return companies[_address].emissions[year];\r\n    }\r\n\r\n    function getLimit(address _address, uint256 year) public view returns (uint256) {\r\n        return companies[_address].limits[year];\r\n    }\r\n\r\n\r\n}\r\n\r\n",
  "sourcePath": "C:\\Users\\jared\\My Cloud\\NUS\\Y3S2\\IS4302\\Project\\CarbonCoin\\contracts\\UserDataStorage.sol",
  "compiler": {
    "name": "solc",
    "version": "0.5.0+commit.1d4f565a.Emscripten.clang"
  },
  "schemaVersion": "3.4.4",
  "updatedAt": "2022-04-11T05:07:06.415Z",
  "networkType": "ethereum",
  "devdoc": {
    "methods": {}
  },
  "userdoc": {
    "methods": {}
  }
}