{
  "contractName": "UserDataStorage",
  "abi": [
    {
      "inputs": [],
      "payable": false,
      "stateMutability": "nonpayable",
      "type": "constructor"
    },
    {
      "constant": false,
      "inputs": [
        {
          "name": "_address",
          "type": "address"
        }
      ],
      "name": "setCompanyContract",
      "outputs": [],
      "payable": false,
      "stateMutability": "nonpayable",
      "type": "function"
    },
    {
      "constant": false,
      "inputs": [
        {
          "name": "_address",
          "type": "address"
        }
      ],
      "name": "setRegulatorContract",
      "outputs": [],
      "payable": false,
      "stateMutability": "nonpayable",
      "type": "function"
    },
    {
      "constant": false,
      "inputs": [
        {
          "name": "name",
          "type": "string"
        },
        {
          "name": "country",
          "type": "string"
        },
        {
          "name": "_address",
          "type": "address"
        }
      ],
      "name": "addRegulator",
      "outputs": [],
      "payable": false,
      "stateMutability": "nonpayable",
      "type": "function"
    },
    {
      "constant": false,
      "inputs": [
        {
          "name": "_address",
          "type": "address"
        }
      ],
      "name": "removeRegulator",
      "outputs": [],
      "payable": false,
      "stateMutability": "nonpayable",
      "type": "function"
    },
    {
      "constant": true,
      "inputs": [
        {
          "name": "_address",
          "type": "address"
        }
      ],
      "name": "isAuthorisedRegulator",
      "outputs": [
        {
          "name": "",
          "type": "bool"
        }
      ],
      "payable": false,
      "stateMutability": "view",
      "type": "function"
    },
    {
      "constant": false,
      "inputs": [
        {
          "name": "name",
          "type": "string"
        },
        {
          "name": "company",
          "type": "address"
        },
        {
          "name": "approvedBy",
          "type": "address"
        }
      ],
      "name": "addCompany",
      "outputs": [],
      "payable": false,
      "stateMutability": "nonpayable",
      "type": "function"
    },
    {
      "constant": false,
      "inputs": [
        {
          "name": "company",
          "type": "address"
        }
      ],
      "name": "removeCompany",
      "outputs": [],
      "payable": false,
      "stateMutability": "nonpayable",
      "type": "function"
    },
    {
      "constant": false,
      "inputs": [
        {
          "name": "company",
          "type": "address"
        },
        {
          "name": "year",
          "type": "uint256"
        },
        {
          "name": "emissions",
          "type": "uint256"
        }
      ],
      "name": "updateCompanyEmissions",
      "outputs": [],
      "payable": false,
      "stateMutability": "nonpayable",
      "type": "function"
    },
    {
      "constant": true,
      "inputs": [
        {
          "name": "_address",
          "type": "address"
        }
      ],
      "name": "isApprovedCompany",
      "outputs": [
        {
          "name": "",
          "type": "bool"
        }
      ],
      "payable": false,
      "stateMutability": "view",
      "type": "function"
    }
  ],
  "bytecode": "0x608060405234801561001057600080fd5b50336000806101000a81548173ffffffffffffffffffffffffffffffffffffffff021916908373ffffffffffffffffffffffffffffffffffffffff1602179055506114b3806100606000396000f3fe608060405260043610610099576000357c0100000000000000000000000000000000000000000000000000000000900463ffffffff16806320ee2dcc1461009e57806326d03f22146100ef5780633190507314610154578063337cfb78146101bd578063379f5fed1461033c578063656b45081461038d578063782ef2c5146103de578063b635851114610447578063b67d4e131461054f575b600080fd5b3480156100aa57600080fd5b506100ed600480360360208110156100c157600080fd5b81019080803573ffffffffffffffffffffffffffffffffffffffff1690602001909291905050506105a0565b005b3480156100fb57600080fd5b506101526004803603606081101561011257600080fd5b81019080803573ffffffffffffffffffffffffffffffffffffffff16906020019092919080359060200190929190803590602001909291905050506107d6565b005b34801561016057600080fd5b506101a36004803603602081101561017757600080fd5b81019080803573ffffffffffffffffffffffffffffffffffffffff1690602001909291905050506109ed565b604051808215151515815260200191505060405180910390f35b3480156101c957600080fd5b5061033a600480360360608110156101e057600080fd5b81019080803590602001906401000000008111156101fd57600080fd5b82018360208201111561020f57600080fd5b8035906020019184600183028401116401000000008311171561023157600080fd5b91908080601f016020809104026020016040519081016040528093929190818152602001838380828437600081840152601f19601f8201169050808301925050505050505091929192908035906020019064010000000081111561029457600080fd5b8201836020820111156102a657600080fd5b803590602001918460018302840111640100000000831117156102c857600080fd5b91908080601f016020809104026020016040519081016040528093929190818152602001838380828437600081840152601f19601f820116905080830192505050505050509192919290803573ffffffffffffffffffffffffffffffffffffffff169060200190929190505050610a50565b005b34801561034857600080fd5b5061038b6004803603602081101561035f57600080fd5b81019080803573ffffffffffffffffffffffffffffffffffffffff169060200190929190505050610c79565b005b34801561039957600080fd5b506103dc600480360360208110156103b057600080fd5b81019080803573ffffffffffffffffffffffffffffffffffffffff169060200190929190505050610e98565b005b3480156103ea57600080fd5b5061042d6004803603602081101561040157600080fd5b81019080803573ffffffffffffffffffffffffffffffffffffffff169060200190929190505050610fa0565b604051808215151515815260200191505060405180910390f35b34801561045357600080fd5b5061054d6004803603606081101561046a57600080fd5b810190808035906020019064010000000081111561048757600080fd5b82018360208201111561049957600080fd5b803590602001918460018302840111640100000000831117156104bb57600080fd5b91908080601f016020809104026020016040519081016040528093929190818152602001838380828437600081840152601f19601f820116905080830192505050505050509192919290803573ffffffffffffffffffffffffffffffffffffffff169060200190929190803573ffffffffffffffffffffffffffffffffffffffff169060200190929190505050611003565b005b34801561055b57600080fd5b5061059e6004803603602081101561057257600080fd5b81019080803573ffffffffffffffffffffffffffffffffffffffff169060200190929190505050611292565b005b600260009054906101000a900473ffffffffffffffffffffffffffffffffffffffff1673ffffffffffffffffffffffffffffffffffffffff163373ffffffffffffffffffffffffffffffffffffffff16141515610665576040517f08c379a00000000000000000000000000000000000000000000000000000000081526004018080602001828103825260148152602001807f556e6174686f726973656420616464726573732100000000000000000000000081525060200191505060405180910390fd5b6000600460008373ffffffffffffffffffffffffffffffffffffffff1673ffffffffffffffffffffffffffffffffffffffff1681526020019081526020016000206000018054600181600116156101000203166002900490501415151561075a576040517f08c379a00000000000000000000000000000000000000000000000000000000081526004018080602001828103825260238152602001807f41646472657373206973206e6f7420616e20617070726f76656420636f6d706181526020017f6e7921000000000000000000000000000000000000000000000000000000000081525060400191505060405180910390fd5b600460008273ffffffffffffffffffffffffffffffffffffffff1673ffffffffffffffffffffffffffffffffffffffff168152602001908152602001600020600080820160006107aa919061139a565b6001820160006101000a81549073ffffffffffffffffffffffffffffffffffffffff0219169055505050565b600260009054906101000a900473ffffffffffffffffffffffffffffffffffffffff1673ffffffffffffffffffffffffffffffffffffffff163373ffffffffffffffffffffffffffffffffffffffff1614151561089b576040517f08c379a00000000000000000000000000000000000000000000000000000000081526004018080602001828103825260148152602001807f556e6174686f726973656420616464726573732100000000000000000000000081525060200191505060405180910390fd5b6000600460008573ffffffffffffffffffffffffffffffffffffffff1673ffffffffffffffffffffffffffffffffffffffff16815260200190815260200160002060000180546001816001161561010002031660029004905014151515610990576040517f08c379a00000000000000000000000000000000000000000000000000000000081526004018080602001828103825260238152602001807f41646472657373206973206e6f7420616e20617070726f76656420636f6d706181526020017f6e7921000000000000000000000000000000000000000000000000000000000081525060400191505060405180910390fd5b80600460008573ffffffffffffffffffffffffffffffffffffffff1673ffffffffffffffffffffffffffffffffffffffff168152602001908152602001600020600201600084815260200190815260200160002081905550505050565b600080600360008473ffffffffffffffffffffffffffffffffffffffff1673ffffffffffffffffffffffffffffffffffffffff16815260200190815260200160002060000180546001816001161561010002031660029004905014159050919050565b600160009054906101000a900473ffffffffffffffffffffffffffffffffffffffff1673ffffffffffffffffffffffffffffffffffffffff163373ffffffffffffffffffffffffffffffffffffffff16141515610b15576040517f08c379a00000000000000000000000000000000000000000000000000000000081526004018080602001828103825260158152602001807f556e617574686f7269736564206164647265737321000000000000000000000081525060200191505060405180910390fd5b6000600360008373ffffffffffffffffffffffffffffffffffffffff1673ffffffffffffffffffffffffffffffffffffffff168152602001908152602001600020600001805460018160011615610100020316600290049050141515610be3576040517f08c379a00000000000000000000000000000000000000000000000000000000081526004018080602001828103825260208152602001807f526567756c61746f7220697320616c726561647920617574686f72697365642181525060200191505060405180910390fd5b604080519081016040528084815260200183815250600360008373ffffffffffffffffffffffffffffffffffffffff1673ffffffffffffffffffffffffffffffffffffffff1681526020019081526020016000206000820151816000019080519060200190610c539291906113e2565b506020820151816001019080519060200190610c709291906113e2565b50905050505050565b600160009054906101000a900473ffffffffffffffffffffffffffffffffffffffff1673ffffffffffffffffffffffffffffffffffffffff163373ffffffffffffffffffffffffffffffffffffffff16141515610d3e576040517f08c379a00000000000000000000000000000000000000000000000000000000081526004018080602001828103825260158152602001807f556e617574686f7269736564206164647265737321000000000000000000000081525060200191505060405180910390fd5b6000600360008373ffffffffffffffffffffffffffffffffffffffff1673ffffffffffffffffffffffffffffffffffffffff16815260200190815260200160002060000180546001816001161561010002031660029004905014151515610e33576040517f08c379a00000000000000000000000000000000000000000000000000000000081526004018080602001828103825260278152602001807f41646472657373206973206e6f7420616e20617574686f72697365642072656781526020017f756c61746f72210000000000000000000000000000000000000000000000000081525060400191505060405180910390fd5b600360008273ffffffffffffffffffffffffffffffffffffffff1673ffffffffffffffffffffffffffffffffffffffff16815260200190815260200160002060008082016000610e83919061139a565b600182016000610e93919061139a565b505050565b6000809054906101000a900473ffffffffffffffffffffffffffffffffffffffff1673ffffffffffffffffffffffffffffffffffffffff163373ffffffffffffffffffffffffffffffffffffffff16141515610f5c576040517f08c379a000000000000000000000000000000000000000000000000000000000815260040180806020018281038252601a8152602001807f4f6e6c7920746865206f776e65722063616e20646f207468697300000000000081525060200191505060405180910390fd5b80600160006101000a81548173ffffffffffffffffffffffffffffffffffffffff021916908373ffffffffffffffffffffffffffffffffffffffff16021790555050565b600080600460008473ffffffffffffffffffffffffffffffffffffffff1673ffffffffffffffffffffffffffffffffffffffff16815260200190815260200160002060000180546001816001161561010002031660029004905014159050919050565b600260009054906101000a900473ffffffffffffffffffffffffffffffffffffffff1673ffffffffffffffffffffffffffffffffffffffff163373ffffffffffffffffffffffffffffffffffffffff161415156110c8576040517f08c379a00000000000000000000000000000000000000000000000000000000081526004018080602001828103825260148152602001807f556e6174686f726973656420616464726573732100000000000000000000000081525060200191505060405180910390fd5b6000600460008473ffffffffffffffffffffffffffffffffffffffff1673ffffffffffffffffffffffffffffffffffffffff1681526020019081526020016000206000018054600181600116156101000203166002900490501415156111bc576040517f08c379a00000000000000000000000000000000000000000000000000000000081526004018080602001828103825260278152602001807f4164647265737320697320616c726561647920616e20617070726f766564204381526020017f6f6d70616e79210000000000000000000000000000000000000000000000000081525060400191505060405180910390fd5b60408051908101604052808481526020018273ffffffffffffffffffffffffffffffffffffffff16815250600460008473ffffffffffffffffffffffffffffffffffffffff1673ffffffffffffffffffffffffffffffffffffffff16815260200190815260200160002060008201518160000190805190602001906112429291906113e2565b5060208201518160010160006101000a81548173ffffffffffffffffffffffffffffffffffffffff021916908373ffffffffffffffffffffffffffffffffffffffff160217905550905050505050565b6000809054906101000a900473ffffffffffffffffffffffffffffffffffffffff1673ffffffffffffffffffffffffffffffffffffffff163373ffffffffffffffffffffffffffffffffffffffff16141515611356576040517f08c379a000000000000000000000000000000000000000000000000000000000815260040180806020018281038252601a8152602001807f4f6e6c7920746865206f776e65722063616e20646f207468697300000000000081525060200191505060405180910390fd5b80600260006101000a81548173ffffffffffffffffffffffffffffffffffffffff021916908373ffffffffffffffffffffffffffffffffffffffff16021790555050565b50805460018160011615610100020316600290046000825580601f106113c057506113df565b601f0160209004906000526020600020908101906113de9190611462565b5b50565b828054600181600116156101000203166002900490600052602060002090601f016020900481019282601f1061142357805160ff1916838001178555611451565b82800160010185558215611451579182015b82811115611450578251825591602001919060010190611435565b5b50905061145e9190611462565b5090565b61148491905b80821115611480576000816000905550600101611468565b5090565b9056fea165627a7a72305820dd04218775240cb9a591daeb15f26d47d79e421492cc095644080ead0cfaf09a0029",
  "source": "pragma solidity ^0.5.0;\r\n\r\n//Data segregation for company and regulator profiles \r\ncontract UserDataStorage {\r\n\r\n    // enum Status {\r\n    //     Requested,\r\n    //     Approved,\r\n    //     Rejected\r\n    // }\r\n    \r\n    struct RegulatorInformation {\r\n        string name;\r\n        string country;\r\n    }\r\n\r\n    struct CompanyInformation {\r\n        string name;\r\n        address approvedBy;\r\n        mapping(uint256 => uint256) emissions;\r\n    }\r\n\r\n    address owner;\r\n    address regulatorContract;\r\n    address companyContract;\r\n\r\n    mapping(address => RegulatorInformation) regulators;\r\n    mapping(address => CompanyInformation) companies;\r\n\r\n    constructor() public {\r\n        owner = msg.sender;\r\n    }\r\n\r\n    // modifiers\r\n    modifier approvedRegulatorContractOnly() {\r\n        require(msg.sender == regulatorContract, 'Unauthorised address!');\r\n        _;\r\n    }\r\n\r\n    modifier approvedCompanyContractOnly() {\r\n        require(msg.sender == companyContract, 'Unathorised address!');\r\n        _;\r\n    }\r\n\r\n    modifier ownerOnly() {\r\n        require(msg.sender == owner, \"Only the owner can do this\");\r\n        _;\r\n    }\r\n\r\n    //set address of regulator and and company contract\r\n\r\n    function setCompanyContract(address _address) ownerOnly() public {\r\n        companyContract = _address;\r\n    }\r\n\r\n    function setRegulatorContract(address _address) ownerOnly() public {\r\n        regulatorContract = _address;\r\n    }\r\n\r\n    // Regulator Functions\r\n\r\n    // add regulator to list of authorised regulators\r\n    function addRegulator(string memory name, string memory country, address _address) public approvedRegulatorContractOnly {\r\n        // ensure that regulator has not been authorised yet.\r\n        require(bytes(regulators[_address].name).length == 0, 'Regulator is already authorised!');\r\n        regulators[_address] = RegulatorInformation({name: name, country: country});\r\n    }\r\n\r\n    // remove regulators from list of authorised regulators\r\n    function removeRegulator(address _address) public approvedRegulatorContractOnly {\r\n        // Ensure that regulator is authorised.\r\n        require(bytes(regulators[_address].name).length != 0, 'Address is not an authorised regulator!');\r\n\r\n        delete regulators[_address];\r\n    }\r\n\r\n    // Regulator Getter functions\r\n\r\n    // checks if address belongs to an authorised regulator.\r\n    function isAuthorisedRegulator(address _address) public view returns(bool) {\r\n        return bytes(regulators[_address].name).length != 0;\r\n    }\r\n\r\n    // Company functions\r\n\r\n    // to add company to approved company list\r\n    function addCompany(string memory name, address company, address approvedBy) public approvedCompanyContractOnly {\r\n        //ensure that address is not already an approved company\r\n        require(bytes(companies[company].name).length == 0, 'Address is already an approved Company!');\r\n        companies[company] = CompanyInformation({name: name, approvedBy: approvedBy});\r\n    }\r\n\r\n    // to remove company from approved company list\r\n    function removeCompany(address company) public approvedCompanyContractOnly {\r\n        // ensure that address is an approved company\r\n        require(bytes(companies[company].name).length != 0, 'Address is not an approved company!');\r\n\r\n        delete companies[company];\r\n    }\r\n\r\n    // To update campany carbon emissions for the year\r\n    function updateCompanyEmissions(address company, uint256 year, uint256 emissions) public approvedCompanyContractOnly {\r\n        // ensure that address is an approved company\r\n        require(bytes(companies[company].name).length != 0, 'Address is not an approved company!');\r\n\r\n        companies[company].emissions[year] = emissions;\r\n    }\r\n\r\n    // checks if address belongs to an approved company.\r\n    function isApprovedCompany(address _address) public view returns(bool) {\r\n        return bytes(companies[_address].name).length != 0;\r\n    }\r\n\r\n}\r\n\r\n",
  "sourcePath": "C:\\Users\\Daniel\\Desktop\\IS4302-CarbonCoin\\contracts\\UserDataStorage.sol",
  "compiler": {
    "name": "solc",
    "version": "0.5.0+commit.1d4f565a.Emscripten.clang"
  },
  "schemaVersion": "3.4.4",
  "updatedAt": "2022-04-05T08:18:48.733Z",
  "devdoc": {
    "methods": {}
  },
  "userdoc": {
    "methods": {}
  }
}