{
  "contractName": "UserDataStorage",
  "abi": [
    {
      "inputs": [
        {
          "name": "_ownerName",
          "type": "string"
        }
      ],
      "payable": false,
      "stateMutability": "nonpayable",
      "type": "constructor"
    },
    {
      "constant": false,
      "inputs": [
        {
          "name": "name",
          "type": "string"
        },
        {
          "name": "_address",
          "type": "address"
        },
        {
          "name": "authorized",
          "type": "bool"
        }
      ],
      "name": "addRegulator",
      "outputs": [],
      "payable": false,
      "stateMutability": "nonpayable",
      "type": "function"
    },
    {
      "constant": false,
      "inputs": [
        {
          "name": "_address",
          "type": "address"
        },
        {
          "name": "newAuthorisationStatus",
          "type": "bool"
        }
      ],
      "name": "updateRegulatorAuthorisation",
      "outputs": [],
      "payable": false,
      "stateMutability": "nonpayable",
      "type": "function"
    },
    {
      "constant": false,
      "inputs": [
        {
          "name": "_address",
          "type": "address"
        }
      ],
      "name": "removeRegulator",
      "outputs": [],
      "payable": false,
      "stateMutability": "nonpayable",
      "type": "function"
    },
    {
      "constant": true,
      "inputs": [
        {
          "name": "_address",
          "type": "address"
        }
      ],
      "name": "getRegulatorAuthorisation",
      "outputs": [
        {
          "name": "",
          "type": "bool"
        }
      ],
      "payable": false,
      "stateMutability": "view",
      "type": "function"
    }
  ],
  "bytecode": "0x608060405234801561001057600080fd5b5060405161075d38038061075d8339810180604052602081101561003357600080fd5b81019080805164010000000081111561004b57600080fd5b8281019050602081018481111561006157600080fd5b815185600182028301116401000000008211171561007e57600080fd5b5050929190505050336000806101000a81548173ffffffffffffffffffffffffffffffffffffffff021916908373ffffffffffffffffffffffffffffffffffffffff160217905550604080519081016040528082815260200160011515815250600160003373ffffffffffffffffffffffffffffffffffffffff1673ffffffffffffffffffffffffffffffffffffffff1681526020019081526020016000206000820151816000019080519060200190610139929190610163565b5060208201518160010160006101000a81548160ff02191690831515021790555090505050610208565b828054600181600116156101000203166002900490600052602060002090601f016020900481019282601f106101a457805160ff19168380011785556101d2565b828001600101855582156101d2579182015b828111156101d15782518255916020019190600101906101b6565b5b5090506101df91906101e3565b5090565b61020591905b808211156102015760008160009055506001016101e9565b5090565b90565b610546806102176000396000f3fe608060405260043610610062576000357c0100000000000000000000000000000000000000000000000000000000900463ffffffff168063270ab05514610067578063379f5fed1461015b57806361bb1c46146101ac5780638c4565f314610215575b600080fd5b34801561007357600080fd5b506101596004803603606081101561008a57600080fd5b81019080803590602001906401000000008111156100a757600080fd5b8201836020820111156100b957600080fd5b803590602001918460018302840111640100000000831117156100db57600080fd5b91908080601f016020809104026020016040519081016040528093929190818152602001838380828437600081840152601f19601f820116905080830192505050505050509192919290803573ffffffffffffffffffffffffffffffffffffffff169060200190929190803515159060200190929190505050610272565b005b34801561016757600080fd5b506101aa6004803603602081101561017e57600080fd5b81019080803573ffffffffffffffffffffffffffffffffffffffff16906020019092919050505061030d565b005b3480156101b857600080fd5b506101fb600480360360208110156101cf57600080fd5b81019080803573ffffffffffffffffffffffffffffffffffffffff169060200190929190505050610376565b604051808215151515815260200191505060405180910390f35b34801561022157600080fd5b506102706004803603604081101561023857600080fd5b81019080803573ffffffffffffffffffffffffffffffffffffffff1690602001909291908035151590602001909291905050506103cf565b005b6040805190810160405280848152602001821515815250600160008473ffffffffffffffffffffffffffffffffffffffff1673ffffffffffffffffffffffffffffffffffffffff16815260200190815260200160002060008201518160000190805190602001906102e492919061042d565b5060208201518160010160006101000a81548160ff021916908315150217905550905050505050565b600160008273ffffffffffffffffffffffffffffffffffffffff1673ffffffffffffffffffffffffffffffffffffffff1681526020019081526020016000206000808201600061035d91906104ad565b6001820160006101000a81549060ff0219169055505050565b6000600160008373ffffffffffffffffffffffffffffffffffffffff1673ffffffffffffffffffffffffffffffffffffffff16815260200190815260200160002060010160009054906101000a900460ff169050919050565b80600160008473ffffffffffffffffffffffffffffffffffffffff1673ffffffffffffffffffffffffffffffffffffffff16815260200190815260200160002060010160006101000a81548160ff0219169083151502179055505050565b828054600181600116156101000203166002900490600052602060002090601f016020900481019282601f1061046e57805160ff191683800117855561049c565b8280016001018555821561049c579182015b8281111561049b578251825591602001919060010190610480565b5b5090506104a991906104f5565b5090565b50805460018160011615610100020316600290046000825580601f106104d357506104f2565b601f0160209004906000526020600020908101906104f191906104f5565b5b50565b61051791905b808211156105135760008160009055506001016104fb565b5090565b9056fea165627a7a723058203c64091f0abf9a43cda3fd344ff0284c08635e8ba0d3d713823c71879378e7ce0029",
  "source": "pragma solidity ^0.5.0;\r\n\r\n//Data segregation for company and regulator profiles \r\ncontract UserDataStorage {\r\n    address owner;\r\n\r\n    struct RegulatorInformation {\r\n        string name;\r\n        bool authorised;\r\n    }\r\n\r\n    struct CompanyInformation {\r\n        string name;\r\n        bool authorised;\r\n    }\r\n\r\n    constructor(string memory _ownerName) public {\r\n        owner = msg.sender;\r\n        approvedRegulators[msg.sender] = RegulatorInformation({name: _ownerName, authorised: true});\r\n    }\r\n\r\n    mapping(address => RegulatorInformation) approvedRegulators;\r\n    mapping(address => CompanyInformation) approvedCompanies;\r\n\r\n    function addRegulator(string memory name, address _address, bool authorized) public {\r\n        approvedRegulators[_address] = RegulatorInformation({name: name, authorised: authorized});\r\n    }\r\n\r\n    function updateRegulatorAuthorisation(address _address, bool newAuthorisationStatus) public {\r\n        approvedRegulators[_address].authorised = newAuthorisationStatus;\r\n    }\r\n\r\n    function removeRegulator(address _address) public {\r\n        delete approvedRegulators[_address];\r\n    }\r\n\r\n    function getRegulatorAuthorisation(address _address) public view returns(bool) {\r\n        return approvedRegulators[_address].authorised;\r\n    }\r\n\r\n}\r\n\r\n",
  "sourcePath": "C:\\Users\\Daniel\\Desktop\\IS4302-CarbonCoin\\contracts\\UserDataStorage.sol",
  "compiler": {
    "name": "solc",
    "version": "0.5.0+commit.1d4f565a.Emscripten.clang"
  },
  "schemaVersion": "3.4.4",
  "updatedAt": "2022-03-26T06:03:43.254Z",
  "networkType": "ethereum",
  "devdoc": {
    "methods": {}
  },
  "userdoc": {
    "methods": {}
  }
}