{
  "contractName": "Wallet",
  "abi": [
    {
      "inputs": [],
      "payable": false,
      "stateMutability": "nonpayable",
      "type": "constructor"
    },
    {
      "anonymous": false,
      "inputs": [
        {
          "indexed": false,
          "name": "",
          "type": "address"
        }
      ],
      "name": "CarbonExchangeAddressSet",
      "type": "event"
    },
    {
      "constant": false,
      "inputs": [
        {
          "name": "_address",
          "type": "address"
        }
      ],
      "name": "setCarbonExchangeAddress",
      "outputs": [],
      "payable": false,
      "stateMutability": "nonpayable",
      "type": "function"
    },
    {
      "constant": false,
      "inputs": [
        {
          "name": "_address",
          "type": "address"
        },
        {
          "name": "amount",
          "type": "uint256"
        }
      ],
      "name": "depositEth",
      "outputs": [],
      "payable": false,
      "stateMutability": "nonpayable",
      "type": "function"
    },
    {
      "constant": false,
      "inputs": [
        {
          "name": "_address",
          "type": "address"
        }
      ],
      "name": "withdrawEth",
      "outputs": [],
      "payable": false,
      "stateMutability": "nonpayable",
      "type": "function"
    },
    {
      "constant": false,
      "inputs": [
        {
          "name": "_from",
          "type": "address"
        },
        {
          "name": "_to",
          "type": "address"
        },
        {
          "name": "amount",
          "type": "uint256"
        }
      ],
      "name": "transferEth",
      "outputs": [],
      "payable": false,
      "stateMutability": "nonpayable",
      "type": "function"
    },
    {
      "constant": false,
      "inputs": [
        {
          "name": "_address",
          "type": "address"
        },
        {
          "name": "amount",
          "type": "uint256"
        }
      ],
      "name": "addLockedEth",
      "outputs": [],
      "payable": false,
      "stateMutability": "nonpayable",
      "type": "function"
    },
    {
      "constant": false,
      "inputs": [
        {
          "name": "_address",
          "type": "address"
        },
        {
          "name": "amount",
          "type": "uint256"
        }
      ],
      "name": "reduceLockedEth",
      "outputs": [],
      "payable": false,
      "stateMutability": "nonpayable",
      "type": "function"
    },
    {
      "constant": false,
      "inputs": [
        {
          "name": "_address",
          "type": "address"
        },
        {
          "name": "amount",
          "type": "uint256"
        }
      ],
      "name": "depositTokens",
      "outputs": [],
      "payable": false,
      "stateMutability": "nonpayable",
      "type": "function"
    },
    {
      "constant": false,
      "inputs": [
        {
          "name": "_address",
          "type": "address"
        }
      ],
      "name": "withdrawTokens",
      "outputs": [],
      "payable": false,
      "stateMutability": "nonpayable",
      "type": "function"
    },
    {
      "constant": false,
      "inputs": [
        {
          "name": "_from",
          "type": "address"
        },
        {
          "name": "_to",
          "type": "address"
        },
        {
          "name": "amount",
          "type": "uint256"
        }
      ],
      "name": "transferToken",
      "outputs": [],
      "payable": false,
      "stateMutability": "nonpayable",
      "type": "function"
    },
    {
      "constant": false,
      "inputs": [
        {
          "name": "_address",
          "type": "address"
        },
        {
          "name": "amount",
          "type": "uint256"
        }
      ],
      "name": "addLockedToken",
      "outputs": [],
      "payable": false,
      "stateMutability": "nonpayable",
      "type": "function"
    },
    {
      "constant": false,
      "inputs": [
        {
          "name": "_address",
          "type": "address"
        },
        {
          "name": "amount",
          "type": "uint256"
        }
      ],
      "name": "reduceLockedToken",
      "outputs": [],
      "payable": false,
      "stateMutability": "nonpayable",
      "type": "function"
    },
    {
      "constant": true,
      "inputs": [
        {
          "name": "_address",
          "type": "address"
        }
      ],
      "name": "getWithdrawableEth",
      "outputs": [
        {
          "name": "",
          "type": "uint256"
        }
      ],
      "payable": false,
      "stateMutability": "view",
      "type": "function"
    },
    {
      "constant": true,
      "inputs": [
        {
          "name": "_address",
          "type": "address"
        }
      ],
      "name": "getEthBalance",
      "outputs": [
        {
          "name": "",
          "type": "uint256"
        }
      ],
      "payable": false,
      "stateMutability": "view",
      "type": "function"
    },
    {
      "constant": true,
      "inputs": [
        {
          "name": "_address",
          "type": "address"
        }
      ],
      "name": "getWithdrawableToken",
      "outputs": [
        {
          "name": "",
          "type": "uint256"
        }
      ],
      "payable": false,
      "stateMutability": "view",
      "type": "function"
    },
    {
      "constant": true,
      "inputs": [
        {
          "name": "_address",
          "type": "address"
        }
      ],
      "name": "getTokenBalance",
      "outputs": [
        {
          "name": "",
          "type": "uint256"
        }
      ],
      "payable": false,
      "stateMutability": "view",
      "type": "function"
    }
  ],
  "bytecode": "0x608060405234801561001057600080fd5b50336000806101000a81548173ffffffffffffffffffffffffffffffffffffffff021916908373ffffffffffffffffffffffffffffffffffffffff1602179055506118f2806100606000396000f3fe6080604052600436106100db576000357c0100000000000000000000000000000000000000000000000000000000900463ffffffff1680631ba93c16146100e057806325e160631461014557806339ed5123146101965780633aecd0e3146101f1578063411908de1461025657806343e93c40146102b1578063462206631461030257806349df728c1461035d5780634d2301cc146103ae578063515d01bf1461041357806366168bd71461046e578063aed6a6dc146104c9578063b69ff77a1461052e578063d765925d14610589578063f5537ede14610604575b600080fd5b3480156100ec57600080fd5b5061012f6004803603602081101561010357600080fd5b81019080803573ffffffffffffffffffffffffffffffffffffffff16906020019092919050505061067f565b6040518082815260200191505060405180910390f35b34801561015157600080fd5b506101946004803603602081101561016857600080fd5b81019080803573ffffffffffffffffffffffffffffffffffffffff16906020019092919050505061070e565b005b3480156101a257600080fd5b506101ef600480360360408110156101b957600080fd5b81019080803573ffffffffffffffffffffffffffffffffffffffff169060200190929190803590602001909291905050506108d1565b005b3480156101fd57600080fd5b506102406004803603602081101561021457600080fd5b81019080803573ffffffffffffffffffffffffffffffffffffffff169060200190929190505050610a1f565b6040518082815260200191505060405180910390f35b34801561026257600080fd5b506102af6004803603604081101561027957600080fd5b81019080803573ffffffffffffffffffffffffffffffffffffffff16906020019092919080359060200190929190505050610a68565b005b3480156102bd57600080fd5b50610300600480360360208110156102d457600080fd5b81019080803573ffffffffffffffffffffffffffffffffffffffff169060200190929190505050610bcd565b005b34801561030e57600080fd5b5061035b6004803603604081101561032557600080fd5b81019080803573ffffffffffffffffffffffffffffffffffffffff16906020019092919080359060200190929190505050610d38565b005b34801561036957600080fd5b506103ac6004803603602081101561038057600080fd5b81019080803573ffffffffffffffffffffffffffffffffffffffff169060200190929190505050610e86565b005b3480156103ba57600080fd5b506103fd600480360360208110156103d157600080fd5b81019080803573ffffffffffffffffffffffffffffffffffffffff169060200190929190505050611049565b6040518082815260200191505060405180910390f35b34801561041f57600080fd5b5061046c6004803603604081101561043657600080fd5b81019080803573ffffffffffffffffffffffffffffffffffffffff16906020019092919080359060200190929190505050611092565b005b34801561047a57600080fd5b506104c76004803603604081101561049157600080fd5b81019080803573ffffffffffffffffffffffffffffffffffffffff169060200190929190803590602001909291905050506111e0565b005b3480156104d557600080fd5b50610518600480360360208110156104ec57600080fd5b81019080803573ffffffffffffffffffffffffffffffffffffffff1690602001909291905050506112f6565b6040518082815260200191505060405180910390f35b34801561053a57600080fd5b506105876004803603604081101561055157600080fd5b81019080803573ffffffffffffffffffffffffffffffffffffffff16906020019092919080359060200190929190505050611385565b005b34801561059557600080fd5b50610602600480360360608110156105ac57600080fd5b81019080803573ffffffffffffffffffffffffffffffffffffffff169060200190929190803573ffffffffffffffffffffffffffffffffffffffff169060200190929190803590602001909291905050506114ea565b005b34801561061057600080fd5b5061067d6004803603606081101561062757600080fd5b81019080803573ffffffffffffffffffffffffffffffffffffffff169060200190929190803573ffffffffffffffffffffffffffffffffffffffff169060200190929190803590602001909291905050506116d8565b005b600080600360008473ffffffffffffffffffffffffffffffffffffffff1673ffffffffffffffffffffffffffffffffffffffff16815260200190815260200160002054600260008573ffffffffffffffffffffffffffffffffffffffff1673ffffffffffffffffffffffffffffffffffffffff1681526020019081526020016000205403905080915050919050565b600160009054906101000a900473ffffffffffffffffffffffffffffffffffffffff1673ffffffffffffffffffffffffffffffffffffffff163373ffffffffffffffffffffffffffffffffffffffff161415156107d3576040517f08c379a00000000000000000000000000000000000000000000000000000000081526004018080602001828103825260178152602001807f4e6f7420617574686f726973656420616464726573732100000000000000000081525060200191505060405180910390fd5b60006107de8261067f565b111515610879576040517f08c379a00000000000000000000000000000000000000000000000000000000081526004018080602001828103825260278152602001807f496e73756666696369656e742066756e6473206f722066756e6473206172652081526020017f6c6f636b6564210000000000000000000000000000000000000000000000000081525060400191505060405180910390fd5b6108828161067f565b600260008373ffffffffffffffffffffffffffffffffffffffff1673ffffffffffffffffffffffffffffffffffffffff1681526020019081526020016000206000828254039250508190555050565b600160009054906101000a900473ffffffffffffffffffffffffffffffffffffffff1673ffffffffffffffffffffffffffffffffffffffff163373ffffffffffffffffffffffffffffffffffffffff16141515610996576040517f08c379a00000000000000000000000000000000000000000000000000000000081526004018080602001828103825260178152602001807f4e6f7420617574686f726973656420616464726573732100000000000000000081525060200191505060405180910390fd5b80600260008473ffffffffffffffffffffffffffffffffffffffff1673ffffffffffffffffffffffffffffffffffffffff1681526020019081526020016000205401600260008473ffffffffffffffffffffffffffffffffffffffff1673ffffffffffffffffffffffffffffffffffffffff168152602001908152602001600020819055505050565b6000600460008373ffffffffffffffffffffffffffffffffffffffff1673ffffffffffffffffffffffffffffffffffffffff168152602001908152602001600020549050919050565b600160009054906101000a900473ffffffffffffffffffffffffffffffffffffffff1673ffffffffffffffffffffffffffffffffffffffff163373ffffffffffffffffffffffffffffffffffffffff16141515610b2d576040517f08c379a00000000000000000000000000000000000000000000000000000000081526004018080602001828103825260178152602001807f4e6f7420617574686f726973656420616464726573732100000000000000000081525060200191505060405180910390fd5b600081600560008573ffffffffffffffffffffffffffffffffffffffff1673ffffffffffffffffffffffffffffffffffffffff168152602001908152602001600020540390506000811015610b83576000610b85565b805b600560008573ffffffffffffffffffffffffffffffffffffffff1673ffffffffffffffffffffffffffffffffffffffff16815260200190815260200160002081905550505050565b6000809054906101000a900473ffffffffffffffffffffffffffffffffffffffff1673ffffffffffffffffffffffffffffffffffffffff163373ffffffffffffffffffffffffffffffffffffffff16141515610c91576040517f08c379a00000000000000000000000000000000000000000000000000000000081526004018080602001828103825260168152602001807f4e6f74206f776e6572206f6620636f6e7472616374210000000000000000000081525060200191505060405180910390fd5b80600160006101000a81548173ffffffffffffffffffffffffffffffffffffffff021916908373ffffffffffffffffffffffffffffffffffffffff1602179055507f314575971267369fa3611d5f4f43539c1b7461c57ab983497ba5e1e8d93b93e981604051808273ffffffffffffffffffffffffffffffffffffffff1673ffffffffffffffffffffffffffffffffffffffff16815260200191505060405180910390a150565b600160009054906101000a900473ffffffffffffffffffffffffffffffffffffffff1673ffffffffffffffffffffffffffffffffffffffff163373ffffffffffffffffffffffffffffffffffffffff16141515610dfd576040517f08c379a00000000000000000000000000000000000000000000000000000000081526004018080602001828103825260178152602001807f4e6f7420617574686f726973656420616464726573732100000000000000000081525060200191505060405180910390fd5b80600360008473ffffffffffffffffffffffffffffffffffffffff1673ffffffffffffffffffffffffffffffffffffffff1681526020019081526020016000205401600360008473ffffffffffffffffffffffffffffffffffffffff1673ffffffffffffffffffffffffffffffffffffffff168152602001908152602001600020819055505050565b600160009054906101000a900473ffffffffffffffffffffffffffffffffffffffff1673ffffffffffffffffffffffffffffffffffffffff163373ffffffffffffffffffffffffffffffffffffffff16141515610f4b576040517f08c379a00000000000000000000000000000000000000000000000000000000081526004018080602001828103825260178152602001807f4e6f7420617574686f726973656420616464726573732100000000000000000081525060200191505060405180910390fd5b6000610f56826112f6565b111515610ff1576040517f08c379a00000000000000000000000000000000000000000000000000000000081526004018080602001828103825260298152602001807f496e73756666696369656e7420746f6b656e73206f7220746f6b656e7320617281526020017f65206c6f636b656421000000000000000000000000000000000000000000000081525060400191505060405180910390fd5b610ffa816112f6565b600460008373ffffffffffffffffffffffffffffffffffffffff1673ffffffffffffffffffffffffffffffffffffffff1681526020019081526020016000206000828254039250508190555050565b6000600260008373ffffffffffffffffffffffffffffffffffffffff1673ffffffffffffffffffffffffffffffffffffffff168152602001908152602001600020549050919050565b600160009054906101000a900473ffffffffffffffffffffffffffffffffffffffff1673ffffffffffffffffffffffffffffffffffffffff163373ffffffffffffffffffffffffffffffffffffffff16141515611157576040517f08c379a00000000000000000000000000000000000000000000000000000000081526004018080602001828103825260178152602001807f4e6f7420617574686f726973656420616464726573732100000000000000000081525060200191505060405180910390fd5b80600560008473ffffffffffffffffffffffffffffffffffffffff1673ffffffffffffffffffffffffffffffffffffffff1681526020019081526020016000205401600560008473ffffffffffffffffffffffffffffffffffffffff1673ffffffffffffffffffffffffffffffffffffffff168152602001908152602001600020819055505050565b600160009054906101000a900473ffffffffffffffffffffffffffffffffffffffff1673ffffffffffffffffffffffffffffffffffffffff163373ffffffffffffffffffffffffffffffffffffffff161415156112a5576040517f08c379a00000000000000000000000000000000000000000000000000000000081526004018080602001828103825260178152602001807f4e6f7420617574686f726973656420616464726573732100000000000000000081525060200191505060405180910390fd5b80600460008473ffffffffffffffffffffffffffffffffffffffff1673ffffffffffffffffffffffffffffffffffffffff168152602001908152602001600020600082825401925050819055505050565b600080600560008473ffffffffffffffffffffffffffffffffffffffff1673ffffffffffffffffffffffffffffffffffffffff16815260200190815260200160002054600460008573ffffffffffffffffffffffffffffffffffffffff1673ffffffffffffffffffffffffffffffffffffffff1681526020019081526020016000205403905080915050919050565b600160009054906101000a900473ffffffffffffffffffffffffffffffffffffffff1673ffffffffffffffffffffffffffffffffffffffff163373ffffffffffffffffffffffffffffffffffffffff1614151561144a576040517f08c379a00000000000000000000000000000000000000000000000000000000081526004018080602001828103825260178152602001807f4e6f7420617574686f726973656420616464726573732100000000000000000081525060200191505060405180910390fd5b600081600360008573ffffffffffffffffffffffffffffffffffffffff1673ffffffffffffffffffffffffffffffffffffffff1681526020019081526020016000205403905060008110156114a05760006114a2565b805b600360008573ffffffffffffffffffffffffffffffffffffffff1673ffffffffffffffffffffffffffffffffffffffff16815260200190815260200160002081905550505050565b600160009054906101000a900473ffffffffffffffffffffffffffffffffffffffff1673ffffffffffffffffffffffffffffffffffffffff163373ffffffffffffffffffffffffffffffffffffffff161415156115af576040517f08c379a00000000000000000000000000000000000000000000000000000000081526004018080602001828103825260178152602001807f4e6f7420617574686f726973656420616464726573732100000000000000000081525060200191505060405180910390fd5b806115b984611049565b1015151561162f576040517f08c379a000000000000000000000000000000000000000000000000000000000815260040180806020018281038252601f8152602001807f496e73756666696369656e742066756e647320746f207472616e73666572210081525060200191505060405180910390fd5b6116398382611385565b80600260008573ffffffffffffffffffffffffffffffffffffffff1673ffffffffffffffffffffffffffffffffffffffff1681526020019081526020016000206000828254039250508190555080600260008473ffffffffffffffffffffffffffffffffffffffff1673ffffffffffffffffffffffffffffffffffffffff16815260200190815260200160002060008282540192505081905550505050565b600160009054906101000a900473ffffffffffffffffffffffffffffffffffffffff1673ffffffffffffffffffffffffffffffffffffffff163373ffffffffffffffffffffffffffffffffffffffff1614151561179d576040517f08c379a00000000000000000000000000000000000000000000000000000000081526004018080602001828103825260178152602001807f4e6f7420617574686f726973656420616464726573732100000000000000000081525060200191505060405180910390fd5b806117a784610a1f565b1015151561181d576040517f08c379a00000000000000000000000000000000000000000000000000000000081526004018080602001828103825260208152602001807f496e73756666696369656e7420746f6b656e7320746f207472616e736665722181525060200191505060405180910390fd5b6118278382610a68565b80600460008573ffffffffffffffffffffffffffffffffffffffff1673ffffffffffffffffffffffffffffffffffffffff1681526020019081526020016000206000828254039250508190555080600460008473ffffffffffffffffffffffffffffffffffffffff1673ffffffffffffffffffffffffffffffffffffffff1681526020019081526020016000206000828254019250508190555050505056fea165627a7a7230582067168c88be54b6ac5e9a1911cb3d71c646d0dd7ae2ba9ccf309154de440f23100029",
  "source": "pragma solidity ^0.5.0;\r\n\r\nimport './CarbonExchange.sol';\r\n\r\ncontract Wallet {\r\n    address owner;\r\n    address carbonExchange;\r\n\r\n    mapping(address => uint256) eth_accounts;\r\n    mapping(address => uint256) eth_locked;\r\n\r\n    mapping(address => uint256) token_accounts;\r\n    mapping(address => uint256) token_locked;\r\n\r\n\r\n    // events\r\n    event CarbonExchangeAddressSet(address);\r\n\r\n    constructor() public {\r\n        owner = msg.sender;\r\n    }\r\n\r\n    modifier ownerOnly() {\r\n        require(msg.sender == owner, 'Not owner of contract!');\r\n        _;\r\n    }\r\n\r\n    modifier carbonExchangeContractOnly() {\r\n        require(msg.sender == carbonExchange, 'Not authorised address!');\r\n        _;\r\n    }\r\n\r\n    function setCarbonExchangeAddress(address _address) public ownerOnly {\r\n        carbonExchange = _address;\r\n        emit CarbonExchangeAddressSet(_address);\r\n    }\r\n\r\n    // eth accounts\r\n\r\n    function depositEth(address _address, uint256 amount) public carbonExchangeContractOnly {\r\n        eth_accounts[_address] = eth_accounts[_address] + amount;\r\n    }\r\n\r\n    function withdrawEth(address _address) public carbonExchangeContractOnly {\r\n        require(getWithdrawableEth(_address) > 0, 'Insufficient funds or funds are locked!');\r\n\r\n        eth_accounts[_address] -= getWithdrawableEth(_address);\r\n    }\r\n\r\n    function transferEth(address _from, address _to, uint256 amount) public carbonExchangeContractOnly {\r\n        require(getEthBalance(_from) >= amount, 'Insufficient funds to transfer!');\r\n        reduceLockedEth(_from, amount);\r\n        eth_accounts[_from] -= amount;\r\n        eth_accounts[_to] += amount;\r\n    }\r\n\r\n    function addLockedEth(address _address, uint256 amount)  public carbonExchangeContractOnly {\r\n        eth_locked[_address] = eth_locked[_address] + amount;\r\n    }\r\n\r\n    function reduceLockedEth(address _address, uint256 amount) public carbonExchangeContractOnly {\r\n        uint256 locked_funds = eth_locked[_address] - amount;\r\n        eth_locked[_address] = locked_funds >= 0 ? locked_funds : 0;\r\n    }\r\n\r\n    // token accounts\r\n\r\n    function depositTokens(address _address, uint256 amount) public carbonExchangeContractOnly {\r\n        token_accounts[_address] += amount;\r\n    }\r\n\r\n    function withdrawTokens(address _address) public carbonExchangeContractOnly {\r\n        require(getWithdrawableToken(_address) > 0, 'Insufficient tokens or tokens are locked!');\r\n        token_accounts[_address] -= getWithdrawableToken(_address);\r\n    }\r\n\r\n    function transferToken(address _from, address _to, uint256 amount) public carbonExchangeContractOnly {\r\n        require(getTokenBalance(_from) >= amount, 'Insufficient tokens to transfer!');\r\n        reduceLockedToken(_from, amount);\r\n        token_accounts[_from] -= amount;\r\n        token_accounts[_to] += amount;\r\n    }\r\n\r\n    function addLockedToken(address _address, uint256 amount) public carbonExchangeContractOnly {\r\n        token_locked[_address] = token_locked[_address] + amount;\r\n    }\r\n\r\n    function reduceLockedToken(address _address, uint256 amount) public carbonExchangeContractOnly {\r\n        uint256 locked_token = token_locked[_address] - amount;\r\n        token_locked[_address] = locked_token >= 0 ? locked_token : 0;\r\n    }\r\n\r\n\r\n    // getters\r\n    function getWithdrawableEth(address _address) public view returns (uint256) {\r\n        uint256 available_funds = eth_accounts[_address] - eth_locked[_address];\r\n        return available_funds;\r\n    }\r\n\r\n    function getEthBalance(address _address) public view returns(uint256) {\r\n        return eth_accounts[_address];\r\n    }\r\n\r\n    function getWithdrawableToken(address _address) public view returns (uint256) {\r\n        uint256 available_tokens = token_accounts[_address] - token_locked[_address];\r\n        return available_tokens;\r\n    }\r\n\r\n    function getTokenBalance(address _address) public view returns (uint256) {\r\n        return token_accounts[_address];\r\n    }\r\n\r\n}",
  "sourcePath": "C:\\Users\\jared\\My Cloud\\NUS\\Y3S2\\IS4302\\Project\\CarbonCoin\\contracts\\Wallet.sol",
  "compiler": {
    "name": "solc",
    "version": "0.5.0+commit.1d4f565a.Emscripten.clang"
  },
  "schemaVersion": "3.4.4",
  "updatedAt": "2022-04-11T05:07:06.437Z",
  "networkType": "ethereum",
  "devdoc": {
    "methods": {}
  },
  "userdoc": {
    "methods": {}
  }
}